:1000000000400020F9320000353300003533000095
:1000100035330000353300003533000000000000A8
:100020000000000000000000000000003533000068
:100030003533000000000000353300003533000088
:10004000091B000035330000353300003533000054
:10005000353300003533000035160000E915000087
:100060004118000039070000490700000122000084
:100070000F22000035330000012B0000FD1F00009F
:100080002D2000003533000051110000E103000075
:100090001521000035210000353300003533000004
:1000A0004520000065200000AD200000CD200000AC
:1000B000212E0000492E00003533000035330000AA
:1000C0003533000035330000353300003533000090
:1000D0003533000035330000353300003533000080
:1000E0001D2200004515000015200000E11400004D
:1000F00035330000353300003533000000000000C8
:1001000000000000000000000000000000000000EF
:1001100000000000000000000000000000000000DF
:10012000353300003533000035330000353300002F
:10013000353300003533000035330000353300001F
:10018000FFFFFFFFFFFFFFFFFFFFFFFFFFFFFFFF7F
:1001900003329CA77F000000FFFFFFFFFFFFFFFF70
:1001A00010B5054C237833B9044B13B10448AFF3B1
:1001B00000800123237010BD000C0020000000000F
:1001C000986301000C4B43B10C4810B50C49AFF3D8
:1001D00000800C48036823B910BD0A48036833B98E
:1001E0007047094B002BF7D0BDE810401847064B6D
:1001F000002BF5D0184700BF0000000098630100F5
:10020000040C00206C0A002000000000154B002B9D
:1002100008BF134B9D46A3F5803A00218B460F463D
:100220001348144A121A0FF045F80F4B002B00D058
:1002300098470E4B002B00D0984700200021040067
:100240000D000D48002802D00C4811F06BFF0EF095
:10025000FFFB2000290003F017FB0EF07DF900BF23
:100260000000080000400020000000000000000026
:10027000000C0020A017002025210100FD32010004
:1002800080B483B000AF0346FB7197F90730002BB1
:100290000BDB084997F907305B09FA7902F01F0276
:1002A000012000FA02F241F8232000BF0C37BD46BE
:1002B00080BC704700E100E080B584B000AF00234F
:1002C000FB60EFF310837B607B68FB6072B61B4BB7
:1002D0001B7883F00103DBB2002B26D0174B0122E1
:1002E0001A70174A164B5B6843F001035360144BB6
:1002F000144A9A601320FFF7C3FF6FF07843BB6086
:100300000F4ABB6813620E4ABB68D3620C4ABB68D3
:1003100053630B4ABB68D363094ABB689364084ABA
:10032000BB68D364064ABB681365FB683B603B68E7
:1003300083F3108800BF1037BD4680BD0014002035
:10034000000001400010002080B489B000AF0346D7
:10035000B9607A60FB730023FB77204B1B7883F036
:100360000103DBB2002B02D00123FB7707E01B2344
:10037000BB61FA7BBB699A4201D30223FB77FB7F07
:10038000002B25D1154AFB7BDB00134404337B6132
:100390007B69BA681A607B697A685A60FB7B0122C4
:1003A00002FA03F33B61BB68002B08D00B490B4BEF
:1003B000D3F8DC203B691343C1F8DC3008E007497F
:1003C000064BD3F8DC203B69DB431340C1F8DC303B
:1003D000FB7F18462437BD4680BC704700140020C0
:1003E00080B58AB000AF2C4BDB6CFB612A4B9B6C59
:1003F000BB61294B1B6D7B61284BD3F8DC20B969AD
:100400007B690B4313407B627B6A002B37D0202330
:100410003B617B6AB3FA83F33B622CE03A693B6A47
:10042000D31A013BFB600122FB6802FA03F3BB60B5
:100430001A4AFB68DB00134404337B607B681B684B
:10044000002B0FD0BA69BB681340002B01D00123E9
:1004500000E002233B607B681B687A6850680022DA
:1004600039689847BB68DB437A6A13407B627B6AD2
:10047000B3FA83F33B623A6A3B699A42CED3064AA7
:10048000BB699364044A7B691365034AFB69D364BF
:1004900000BF2837BD4680BD000001400014002089
:1004A00080B483B000AF0346FB7197F90730002B8F
:1004B0000BDB084997F907305B09FA7902F01F0254
:1004C000012000FA02F241F8232000BF0C37BD469C
:1004D00080BC704700E100E080B483B000AF034609
:1004E000FB7197F90730002B10DB0B4997F90730A8
:1004F0005B09FA7902F01F02012000FA02F22033B0
:1005000041F82320BFF34F8FBFF36F8F00BF0C372D
:10051000BD4680BC704700BF00E100E080B584B0FC
:1005200000AF786039607B68002B01D1042328E09C
:100530003B680F2B01D8052323E0144BDB68002B0D
:100540001ED1124A7B68D3600023FB600FE00F4B83
:10055000DB68FA68002143F832100C4BDA68FB685C
:10056000DB00134400225A60FB680133FB60FB6828
:10057000012BECD90920FFF793FF0A20FFF790FF2A
:10058000002318461037BD4680BD00BF0400002080
:1005900080B500AF084BDB68002B01D1032309E0D5
:1005A0000920FFF799FF0A20FFF796FF024B002270
:1005B000DA600023184680BD0400002080B586B0B4
:1005C00000AF0346FB710B46BB801346BB71002393
:1005D0007B611F4BDB68002B01D1032334E0BA8819
:1005E000FB791146184600F0B7F8034683F0010383
:1005F000DBB2002B01D0062326E0FB79144A52F827
:1006000023303B61EFF31083FB60FB687B6172B6C4
:10061000BB79002B08D03B699B889AB2BB881343F7
:100620009AB23B699A8009E03B699B889AB2BB8881
:10063000DB439BB213409AB23B699A807B69BB60F3
:10064000BB6883F31088002318461837BD4680BD69
:100650000400002080B584B000AF03460A46FB7159
:100660001346BB80104BDB68002B01D1032316E03F
:10067000BA88FB791146184600F06EF8034683F0FD
:100680000103DBB2002B01D0062308E0FB79064A08
:1006900052F82330FB60FB68BA881A83002318469F
:1006A0001037BD4680BD00BF0400002080B586B075
:1006B00000AF03460A46FB711346BB711D4BDA6857
:1006C000FB79DB0013443B610023FB752BE0FB7DD2
:1006D000184A52F82330FB6097F90630092B03D1F2
:1006E000FB681B8DBB8202E0FB689B8DBB82FB68B5
:1006F0001B8E9AB2BB8A13409BB27B817A89FB68BE
:100700001A863B691B68002B0AD07B89002B07D017
:100710003B691B683A695068F97D07F10A029847FE
:10072000FB7D0133FB75FB7D022BD0D900BF183751
:10073000BD4680BD0400002080B500AF0921002027
:10074000FFF7B4FF00BF80BD80B500AF0A210120D4
:10075000FFF7ACFF00BF80BD80B485B000AF03469B
:100760000A46FB711346BB800023FB60FB79012B1B
:1007700009D0022B0CD0002B00D00EE0BB881B0C44
:100780001B04FB6009E0BB881B0C1B04FB6004E03E
:10079000BB881B0C1B04FB6000BFFB68002B01D156
:1007A000012300E0002318461437BD4680BC704783
:1007B00080B483B000AF0346FB7197F90730002B7C
:1007C0000BDB084997F907305B09FA7902F01F0241
:1007D000012000FA02F241F8232000BF0C37BD4689
:1007E00080BC704700E100E080B483B000AF0346F6
:1007F000FB7197F90730002B10DB0B4997F9073095
:100800005B09FA7902F01F02012000FA02F220339C
:1008100041F82320BFF34F8FBFF36F8F00BF0C371A
:10082000BD4680BC704700BF00E100E080B483B0EB
:1008300000AF7860084BDA687B689A4206D07B6824
:100840005B68DB68002B01D0012300E00023184621
:100850000C37BD4680BC70471400002080B588B0BE
:1008600000AFF860B9607A603B60BB68FB612E4BFB
:10087000BB61BB691B689B8C9BB2B3F5217F05D123
:100880002A4A2A4B1B6843F030031360FB68002B95
:1008900001D0032344E0264AFB681B0113440C33B8
:1008A0001B68002B01D005233AE0BB68002B02D067
:1008B0007B682F2B01D8092332E03B6800221A60A5
:1008C0001B4AFB681B0113440C33BA681A607A6830
:1008D0000021B8680EF0EEFCFB681B01144A1A44B4
:1008E000FB695A60124AFB681B01134404331A68FF
:1008F000FB691A60FB695968FA6813465B00134488
:100900009B000C4A13448B60FB690022DA62F86991
:1009100000F08CFA0346FB753B68FA691A60002305
:1009200018462037BD4680BD30000020340002400C
:10093000140000202400002080B584B000AF78604F
:100940007868FFF773FF0346002B01D0022309E00C
:10095000786800F06BFA0346FB737B685B680022E3
:10096000DA60002318461037BD4680BD80B586B0DA
:1009700000AFF860B9607A60F868FFF757FF034688
:10098000002B01D002234EE0294B1B881A46FB683E
:100990001B689B889BB203F488639A4201D00523AD
:1009A00041E0BB689B68002B03D0BB689B89002B90
:1009B00001D10A2337E0FB6800221A74B968F8688D
:1009C00000F0E4F8FB6893F82A30002B19D1FB689B
:1009D0002C3300221946002000F060FE0346FB7510
:1009E000FB7D002B01D00D231DE000BF104B1B88A9
:1009F0001A46FB681B689B889BB203F488639A4283
:100A0000F4D1FB6893F82B301A467B681A60FB68B8
:100A100093F82B30002B03D0FB68082283F82A20A0
:100A2000FB6893F82A3018461837BD4680BD00BFD2
:100A3000E014002080B582B000AF78607868FFF7DE
:100A4000F5FE0346002B01D0022306E07B6800225E
:100A5000DA62786800F0EAF9034618460837BD46BE
:100A600080BD000080B586B000AF786039607868DE
:100A7000FFF7DCFE0346002B01D002234DE0294B9B
:100A80001B881A467B681B689B889BB203F48863AB
:100A90009A4201D0052340E007F1080319460020DF
:100AA00000F02EFC0346002B01D0042335E03B6808
:100AB0001D4A934201D901232FE0BA683B68B2FB7B
:100AC000F3F35B087B617B697B827A8A7B699A425C
:100AD00001D0012321E07B8A073B3B827B8A013BDB
:100AE000FB813B8A1B023B820E4B1B881A463B8ACA
:100AF000DBB29A4207D10B4B1B881A46FB8903F4E1
:100B00007F439A4201D0012307E07B681B68398A42
:100B1000FA890A4392B29A84002318461837BD46D0
:100B200080BD00BFE0140020801A060080B582B0AE
:100B300000AF78600B467B807868FFF777FE03464E
:100B4000002B01D002231BE00F4B1B881A467B6849
:100B50001B689B889BB203F488639A4201D00523EB
:100B60000EE0094B1B8819467A884FF680731340B4
:100B7000994201D00B2303E07B687A889A81002395
:100B800018460837BD4680BDE014002080B582B00D
:100B900000AF786039607B68002283F82A207B6888
:100BA000002283F82B2000BF2B4B1B881A467B6842
:100BB0001B689B889BB203F488639A42F4D13B681C
:100BC0001A687B685A613B689A887B681A833B681D
:100BD000DA7B7B689A727B689B895B009BB2DBB295
:100BE0009AB27B68DA813B689B7B002B18D03B680C
:100BF0009A687B685A623B689A897B681A857B6829
:100C00000022DA617B6800221A847B68DB8943F06A
:100C100001039AB27B68DA81786800F087F817E000
:100C20007B6800225A627B6800221A853B689A68BA
:100C30007B68DA613B689A897B681A847B68DB8908
:100C400023F001039AB27B68DA81786800F006F835
:100C500000BF0837BD4680BDE014002080B584B0D9
:100C600000AF78607B685B6893F900301846FFF747
:100C70009FFD7B681B687A681268128892B242F006
:100C8000210292B21A807B681B689B889BB203F09A
:100C900003039BB2C3F10203FB8116E07B681B6870
:100CA0007A6852691278D2B292B29A817B685B6993
:100CB0005A1C7B685A617B681B8B9BB2013B9AB2C2
:100CC0007B681A83FB89013BFB817B681B8B9BB292
:100CD000002B1AD0FB89002BE0D116E07B681B6843
:100CE0007A68D2691278D2B292B29A817B68DB6953
:100CF0005A1C7B68DA617B681B8C9BB2013B9AB201
:100D00007B681A84FB89013BFB817B681B8C9BB24F
:100D1000002B02D0FB89002BE0D17B681B687A682E
:100D2000D2891A8300BF1037BD4680BD80B584B01C
:100D300000AF78607B685B6893F900301846FFF776
:100D400037FD7B681B687A681268128892B242F09D
:100D5000110292B21A807B681B8D9BB2B3F5807F23
:100D60000DD97B681B684FF480721A827B681B8DDB
:100D70009BB2A3F580739AB27B681A850AE07B6800
:100D80001B687A68128D92B2013A92B21A827B681D
:100D900000221A857B681B8B9BB2002B3CD07B68A2
:100DA0001B687A681268128892B242F0200292B2EE
:100DB0001A807B681B689B889BB203F003039BB27D
:100DC000C3F10203FB8116E07B681B687A685269F5
:100DD0001278D2B292B29A817B685B695A1C7B68A6
:100DE0005A617B681B8B9BB2013B9AB27B681A836A
:100DF000FB89013BFB817B681B8B9BB2002B02D0E4
:100E0000FB89002BE0D17B681B687A68D28922F0CD
:100E1000010292B21A8304E07B681B687A68D28967
:100E20001A8300BF1037BD4680BD000080B584B076
:100E300000AF78607B685B6893F900301846FFF775
:100E4000D3FC7B681B689B889BB2FB817B681B681B
:100E5000FA8992B29A8004E07B681B689B899BB2F6
:100E6000BB81234B1B881A467B681B68B3F84C3048
:100E70009BB203F0C0039A42EED17B681B6800224C
:100E80001A807B681B680122A3F850207B681B68CE
:100E90007A685268926812881A807B681B687A6840
:100EA0005268926852889A847B681B687A68526894
:100EB00092689288A3F850207B681B687A68526811
:100EC0009268D288A3F854207B681B687A685268BD
:100ED00092681289A3F858207B685B689B685A89DE
:100EE0007B689A81002318461037BD4680BD00BF3D
:100EF000E014002080B485B000AF78607B681B6888
:100F0000B3F84C309BB21B119BB203F003039BB2AE
:100F1000C3F10203FB8116E07B681B687A685269A3
:100F20001278D2B292B29A817B685B695A1C7B6854
:100F30005A617B681B8B9BB2013B9AB27B681A8318
:100F4000FB89013BFB817B681B8B9BB2002B02D092
:100F5000FB89002BE0D17B681B8B9BB2002B29D136
:100F60007B681B8D9BB2002B1CD07B681B687A684A
:100F7000D2891A831EE07B681B687A68D26912786E
:100F8000D2B292B29A817B68DB695A1C7B68DA61C3
:100F90007B681B8C9BB2013B9AB27B681A84FB89ED
:100FA000013BFB817B681B8C9BB2002B02D0FB8931
:100FB000002BE0D17B681B8C9BB2002B03D17B689C
:100FC0001B6804229A8000BF1437BD4680BC70475E
:100FD00080B485B000AF78607B681B68B3F84C3094
:100FE0009BB29B119BB203F00303FB8139E0FB89A9
:100FF000013BFB817B685B6A7A681268128992B256
:10100000D2B21A707B685B6A5A1C7B685A627B6832
:101010001B689B8A9BB2002B23D17B681B8D9BB2E4
:10102000B3F5807F0DD97B681B684FF480721A82FC
:101030007B681B8D9BB2A3F580739AB27B681A857F
:101040000FE07B681B8D9BB2002B0AD07B681B686E
:101050007A68128D92B2013A92B21A827B680022AB
:101060001A85FB89002BC2D100BF1437BD4680BC56
:101070007047000080B582B000AF786000BF0D4BB4
:101080001B881A467B681B689B889BB203F48863A5
:101090009A42F4D17B685B6893F900301846FFF7F9
:1010A000A3FB7B681B68044A12881A8000BF0837BC
:1010B000BD4680BDE01400202400002080B483B031
:1010C00000AF7860214B1B881A467B681B8903F0B0
:1010D00010039A4208D07B6893F82B3043F0010349
:1010E000DAB27B6883F82B20184B1B881A467B6882
:1010F0001B8903F080039A4208D07B6893F82B3059
:1011000043F00203DAB27B6883F82B200F4B1B8875
:101110001A467B681B8903F020039A4208D07B683B
:1011200093F82B3043F00403DAB27B6883F82B206A
:101130007B6893F82B30002B03D17B68082283F85F
:101140002B2000BF0C37BD4680BC7047E014002048
:1011500080B582B000AF0023FB712A4BDB683B6097
:101160003B681B689B889AB23B681A813B689B7AF4
:10117000002B07D03B681B683A68D2891A833B680A
:1011800000229A72204B1B881A463B681B8903F089
:1011900004039A4202D03868FFF7ACFE1A4B1B8852
:1011A0001A463B681B8903F008039A4202D038684C
:1011B000FFF70EFF144B1B881A463B681B8903F090
:1011C000B0039A4204D03868FFF778FF0123FB711F
:1011D0000D4B1B881A463B681B8903F480739A42A7
:1011E00004D03868FFF746FF0123FB71FB79002B21
:1011F00004D03B682C33184600F0F4FA00BF0837DF
:10120000BD4680BD14000020E014002080B483B0EF
:1012100000AF0346FB7197F90730002B0BDB084941
:1012200097F907305B09FA7902F01F02012000FAF2
:1012300002F241F8232000BF0C37BD4680BC704746
:1012400000E100E080B500AF284B4CF61432DA60C4
:10125000264B02221A61264B00221A60234B4CF6C1
:101260001432DA60214A214B1B6943F002031361F7
:1012700000BF1E4B1B6903F40073002BF9D01D4AFD
:101280001C4B1B6823F0030313601A4B00221A60E7
:10129000184B194A5A60174B46F61A02DA60154B7A
:1012A0001F225A61154B00221A60144B00229A60CB
:1012B000124B00225A640D4B4CF61432DA600B4A82
:1012C0000A4B1B6923F0040313610620FFF79EFFFE
:1012D0000720FFF79BFF2920FFF798FF2B20FFF740
:1012E00095FF02F02BF80023184680BD00C1044092
:1012F000E414002000C304400404100000C00440B3
:1013000080B584B000AF03463960FB71194B1B6890
:10131000002B03D0184B1B68002B01D10A2324E0BB
:1013200002F00CF8134B1B68BB60FB79002B07D055
:10133000012B0CD1114B5B6803F03F03FB6008E00D
:101340000E4B5B681B0A03F03F03FB6001E00423C4
:101350000BE0FB68002B01D10123FB60BA68FB683E
:10136000B2FBF3F23B681A60002318461037BD4603
:1013700080BD00BF101500200C15002000C30440E4
:1013800080B58AB000AF03460A46FB711346BB80A6
:101390000023FB61FB79012B04D0022B51D0002BE1
:1013A00027D077E0BB88202B02D8BB88002B01D147
:1013B00003238EE0494B5B681B0A03F03F03BB61CC
:1013C000BB887B617A69BB699A4201D9072380E0B7
:1013D000BB697A69B3FBF2F2796901FB02F29B1AED
:1013E000002B01D0052374E03F237B62BB883B6266
:1013F00052E0BB88202B02D8BB88002B01D10323ED
:1014000067E0BB88BB61354B5B6803F03F037B61E2
:101410007A69BB699A4201D907235AE0BB697A69A4
:10142000B3FBF2F2796901FB02F29B1A002B01D0A7
:1014300005234EE04FF47C537B62BB881B023B626A
:101440002AE0BB88B3F5007F02D2BB88002B01D114
:1014500003233EE0BB88BB61204B5B6803F03F0386
:101460007B617A69BB699A4201D9072331E0BB6984
:101470007A69B3FBF2F2796901FB02F29B1A002B45
:1014800001D0052325E04FF47F037B62BB881B045A
:101490003B6201E004231CE0EFF31083BB60BB68F8
:1014A000FB6172B60D4B5B683B617B6ADB433A695B
:1014B00013403B613A693B6A13433B61074A3B690E
:1014C0005360FB69FB60FB6883F3108801F036FF13
:1014D000002318462837BD4680BD00BF00C3044026
:1014E00080B582B000AF144B9B6903F006037B60AC
:1014F000124B1B68002B18D07B6803F00403002BF1
:1015000007D00E4B1B680E4A10680022082198472E
:101510000BE07B6803F00203002B06D0074B1B682F
:10152000074A1068002207219847034A7B689361A5
:1015300000BF0837BD4680BD00C30440E41400204E
:10154000E814002080B582B000AF244B9B6903F4FF
:10155000CC433B6000237B60214B1B68002B33D0C6
:101560003B68002B30D03B6803F48043002B04D051
:101570007B6843F004037B601CE03B6803F400538A
:10158000002B04D07B6843F003037B6012E03B68D0
:1015900003F40073002B04D07B6843F005037B60E9
:1015A00008E03B6803F48063002B03D07B6843F0C2
:1015B00006037B607B68002B06D0094B1B68094A39
:1015C00010680022796898473B68002B02D0034AD4
:1015D0003B68936100BF0837BD4680BD00C304402F
:1015E000E4140020E814002080B582B000AF0E4B58
:1015F0005B687B607B6803F00103002B10D00B4B12
:101600001B68002B06D0094B1B68094A1068002292
:1016100079689847044A044B5B6843F001035360C0
:1016200000BF0837BD4680BD00C00440E414002060
:10163000E814002080B582B000AF154B5B687B607A
:10164000144B1B68002B17D07B6803F00403002B9E
:1016500006D0104B1B68104A1068002200219847E2
:101660007B6803F00203002B06D00A4B1B680A4A72
:1016700010680022012198470549054B5A687B688C
:1016800003F0060313434B6000BF0837BD4680BD1F
:1016900000C00440E4140020E814002080B48FB09F
:1016A00000AF03463960FB711346BB7100237B63B7
:1016B00000233B630023FB62BB7923F00703002B6D
:1016C00001D0092380E03B68002B05D17B6B43F000
:1016D00002037B633F4B3B60FB79032B1BD801A2CA
:1016E00052F823F0F9160000F51600000317000069
:1016F0000D170000002367E03B6B43F006033B63DC
:101700000BE07B6B43F004037B6306E07B6B43F0F1
:1017100006037B6301E0062356E0EFF31083BB6111
:10172000BB69FB6272B62C4B44F65902DA602A4957
:10173000294B9B6823F00302FB7913438B602749F5
:10174000264B1A697B6B1A433B6BDB4313400B61DF
:10175000EFF31183FB61FB69BB62214B1B89FB84A7
:10176000BB795B013B623B6A83F311880DE0BFF3F9
:101770004F8F30BFFB6A3B613B6983F31088EFF307
:1017800010837B617B69FB6272B63B681B68002B30
:10179000EDD03B681B685A1E3B681A60BB6ABB6091
:1017A000BB6883F311880E4AFB8C13810B4A0B4BE9
:1017B0001B6923F002031361BFF34F8FFB6AFB60C9
:1017C000FB6883F31088002318463C37BD4680BC75
:1017D000704700BFEC14002000C0044000ED00E0A2
:1017E000002C004080B487B000AF786000237B619C
:1017F0007B68002B14D1104B7B60EFF31083FB60F0
:10180000FB687B6172B60D4A0C4B1B6923F0020327
:101810001361BFF34F8F7B693B613B6983F3108892
:101820007B681B685A1C7B681A60002318461C37AB
:10183000BD4680BC704700BFEC14002000ED00E006
:1018400080B586B000AF00237B6100233B619B4BDA
:101850009B68FB60FB681B681B889BB21A464FF6AF
:10186000040313403B61FB681B689B889BB203F039
:101870007E037B817B89002B56D03B69002B53D0A4
:101880003B6903F01003002B08D07B8903F00403AD
:10189000002B03D07B6943F002037B613B6903F0BB
:1018A0000403002B08D07B8903F00203002B03D034
:1018B0007B6943F001037B613B6903F48053002B98
:1018C00008D07B8903F00803002B03D07B6943F029
:1018D00004037B613B6903F40043002B08D07B8940
:1018E00003F04003002B03D07B6943F020037B61AE
:1018F0003B6903F48043002B08D07B8903F020036D
:10190000002B03D07B6943F010037B613B6903F438
:101910000053002B08D07B8903F01003002B03D069
:101920007B6943F008037B61FB681B681B8D9BB2DE
:1019300003F01F033B61FB681B689B8D9BB203F0A8
:101940000F033B813B89002B3AD03B69002B37D0FA
:101950003B6903F00803002B08D03B8903F0080320
:10196000002B03D07B6943F400737B613B6903F078
:101970000403002B08D03B8903F00403002B03D0A1
:101980007B6943F480737B613B6903F00203002BA6
:1019900008D03B8903F00203002B03D07B6943F09E
:1019A00080037B613B6903F00103002B08D03B8976
:1019B00003F00103002B03D07B6943F040037B61FC
:1019C000FB681B68B3F850309BB21A4641F6FE73B1
:1019D00013403B61FB681B68B3F848309AB240F291
:1019E0001D331340FB80FB88002B10D03B69002B7C
:1019F0000DD03B6903F40073002B08D0FB8803F47F
:101A00000073002B03D07B6943F400637B61FB68A8
:101A10001B68B3F850309BB21A464FF21C43134078
:101A20003B61FB88002B3AD03B69002B37D03B69E8
:101A300003F48043002B08D0FB8803F01003002B35
:101A400003D07B6943F480237B613B6903F400533B
:101A5000002B08D0FB8803F00803002B03D07B6920
:101A600043F400337B613B6903F48053002B08D0BF
:101A7000FB8803F00403002B03D07B6943F480331D
:101A80007B613B6903F48063002B08D0FB8803F083
:101A90000103002B03D07B6943F400437B61FB68A7
:101AA0005B68002B0CD07B69002B09D0FB685B685E
:101AB000FA68906800227969984701E034000020B4
:101AC000FB681B68FA681268928891B27A890A43A7
:101AD00092B29A80FB681B68FA681268928D91B284
:101AE0003A890A4392B29A85FB681B68FA681268C1
:101AF000B2F8482091B2FA880A4392B2A3F848207B
:101B000000BF1837BD4680BD80B586B000AF00234A
:101B10007B6100233B61A24B5B69FB60FB681B6838
:101B20001B889BB21A464FF6040313403B61FB68C7
:101B30001B689B889BB203F07E037B817B89002B13
:101B400056D03B69002B53D03B6903F01003002BA8
:101B500008D07B8903F00403002B03D07B6943F09A
:101B600002037B613B6903F00403002B08D07B89EF
:101B700003F00203002B03D07B6943F001037B6178
:101B80003B6903F48053002B08D07B8903F00803E2
:101B9000002B03D07B6943F004037B613B6903F4B2
:101BA0000043002B08D07B8903F04003002B03D0B7
:101BB0007B6943F020037B613B6903F48043002B86
:101BC00008D07B8903F02003002B03D07B6943F00E
:101BD00010037B613B6903F40053002B08D07B8921
:101BE00003F01003002B03D07B6943F008037B61F3
:101BF000FB681B681B8D9BB203F01F033B61FB68F6
:101C00001B689B8D9BB203F01F033B813B89002B1C
:101C100048D03B69002B45D03B6903F01003002BF3
:101C200008D03B8903F01003002B03D07B6943F4F9
:101C300080637B613B6903F00803002B08D03B897C
:101C400003F00803002B03D07B6943F400737B612E
:101C50003B6903F00403002B08D03B8903F0040325
:101C6000002B03D07B6943F480737B613B6903F0F5
:101C70000203002B08D03B8903F00203002B03D0A2
:101C80007B6943F080037B613B6903F00103002B18
:101C900008D03B8903F00103002B03D07B6943F09C
:101CA00040037B61FB681B68B3F850309BB21A4657
:101CB00041F6FE7313403B61FB681B68B3F8483084
:101CC0009AB240F21D331340FB80FB88002B10D0EA
:101CD0003B69002B0DD03B6903F40073002B08D047
:101CE000FB8803F40073002B03D07B6943F400638B
:101CF0007B61FB681B68B3F84C309BB21A464FF20D
:101D00001C4313403B61FB88002B3AD03B69002BFE
:101D100037D03B6903F48043002B08D0FB8803F0E5
:101D20001003002B03D07B6943F480237B613B6964
:101D300003F40053002B08D0FB8803F00803002BAA
:101D400003D07B6943F400337B613B6903F4805328
:101D5000002B08D0FB8803F00403002B03D07B6921
:101D600043F480337B613B6903F48063002B08D02C
:101D7000FB8803F00103002B03D07B6943F400438D
:101D80007B61FB685B68002B0CD07B69002B09D062
:101D9000FB685B68FA68906800227969984701E0FF
:101DA00034000020FB681B68FA681268928891B2C0
:101DB0007A890A4392B29A80FB681B68FA681268B3
:101DC000928D91B23A890A4392B29A85FB681B6858
:101DD000FA681268B2F8482091B2FA880A4392B2BF
:101DE000A3F8482000BF1837BD4680BD80B483B03B
:101DF00000AF0346FB7197F90730002B10DB0B494E
:101E000097F907305B09FA7902F01F02012000FA06
:101E100002F2203341F82320BFF34F8FBFF36F8FBF
:101E200000BF0C37BD4680BC704700BF00E100E03A
:101E300080B586B000AF78600023FB747B681B68B8
:101E40001B883B827B681B683A8A1A807B681B6808
:101E50001B8CFB813B8A03F090039BB2002B1AD0B2
:101E60003B8A03F010039BB2002B05D07B681B69F3
:101E700043F001027B681A613B8A03F080039BB246
:101E8000002B05D07B681B6943F002027B681A6156
:101E90000123FB7459E0FB8903F00F039BB2C3F1EC
:101EA0000803FB82FB891B0A9BB203F00F03BB8272
:101EB00017E07B681B687A685269127892B21A81BF
:101EC0007B685B697A6892F820201A447B685A61C3
:101ED0007B689B8B013B9AB27B689A83FB8A013BB0
:101EE000FB82FB8A002B03D07B689B8B002BE0D10D
:101EF0007B6893F8243083F00103DBB2002B1DD103
:101F00007B689B8B002B20D118E07B689B697A68EB
:101F10001268928892B2D2B21A707B689B697A6812
:101F200092F821201A447B689A617B68DB8B013B25
:101F30009AB27B68DA83BB8A013BBB82BB8A002BE7
:101F400003D07B68DB8B002BDFD17B68DB8B002B26
:101F50001DD17B689B8B002B19D17B681B681B8A6A
:101F60009BB203F00203022B0FD13B8A03F0020362
:101F7000002B07D17B681B681B889BB203F0020310
:101F8000022B04D10123FB7401E00123FB74FB7CD1
:101F9000002B2ED07B681B687A681268928A92B2F6
:101FA00022F4185292B29A827B68012283F822208E
:101FB0007B685B6893F90C301846FFF717FF7B6866
:101FC0001B681B883B827B681B683A8A1A807B6887
:101FD0009B68002B08D07B689B687A68D0687A6819
:101FE00011690022984704E07B6828331846FFF700
:101FF000F9FB00BF1837BD4680BD000080B500AFBB
:10200000034B1B691846FFF713FF00BF80BD00BFDD
:102010004C00002080B500AF034B5B6A1846FFF709
:1020200007FF00BF80BD00BF4C00002080B500AF9F
:10203000034B9B6B1846FFF7FBFE00BF80BD00BF44
:102040004C00002080B483B000AF054B1B697B605F
:102050007B6800229A8300BF0C37BD4680BC704766
:102060004C00002080B483B000AF0F4B1B697B6035
:102070007B680022DA837B681B687A681268928B1F
:1020800092B222F0070292B29A837B681B687A6848
:102090001268928A92B242F4005292B29A8200BFBF
:1020A0000C37BD4680BC70474C00002080B483B024
:1020B00000AF054B5B6A7B607B6800229A8300BFA0
:1020C0000C37BD4680BC70474C00002080B483B004
:1020D00000AF0F4B5B6A7B607B680022DA837B6812
:1020E0001B687A681268928B92B222F0070292B251
:1020F0009A837B681B687A681268928A92B242F46B
:10210000005292B29A8200BF0C37BD4680BC704725
:102110004C00002080B483B000AF054B9B6B7B600C
:102120007B6800229A8300BF0C37BD4680BC704795
:102130004C00002080B483B000AF0F4B9B6B7B60E2
:102140007B680022DA837B681B687A681268928B4E
:1021500092B222F0070292B29A837B681B687A6877
:102160001268928A92B242F4005292B29A8200BFEE
:102170000C37BD4680BC70474C00002080B584B051
:1021800000AF0346FB71FB791A4A52F823309B8B50
:10219000FB81FB79184A52F82330002B1FD0FB89B2
:1021A00003F00103002B0AD0FB79134A52F82330C5
:1021B000FA79124951F82200002201219847FB893F
:1021C00003F00203002B0AD0FB790B4A52F82330AC
:1021D000FA790A4951F82200002202219847FB7936
:1021E000044A52F8233003229A8100BF1037BD46BB
:1021F00080BD00BF88000020F0140020FC140020E7
:1022000080B500AF0020FFF7B9FF00BF80BD80B5EB
:1022100000AF0120FFF7B2FF00BF80BD80B500AF67
:102220000220FFF7ABFF00BF80BD000080B483B089
:1022300000AF0346FB7197F90730002B0BDB084911
:1022400097F907305B09FA7902F01F02012000FAC2
:1022500002F241F8232000BF0C37BD4680BC704716
:1022600000E100E080B483B000AF0346FB7197F952
:102270000730002B10DB0B4997F907305B09FA791F
:1022800002F01F02012000FA02F2203341F823205D
:10229000BFF34F8FBFF36F8F00BF0C37BD4680BCBD
:1022A000704700BF00E100E080B483B000AF034698
:1022B000FB7197F90730002B0CDB094997F90730C0
:1022C0005B09FA7902F01F02012000FA02F2603382
:1022D00041F8232000BF0C37BD4680BC704700BFCB
:1022E00000E100E080B588B000AFF860B9607A60C6
:1022F000FB68BB61BB695B6ADB6A1B697B610023AE
:10230000FB61BB68012B02D0022B05D009E0FB6901
:1023100043F48073FB6109E0FB6943F48063FB6174
:1023200004E0FB6943F48053FB6100BF7B691B68D9
:10233000002B13D07B695B7B002B0FD0BB699A69A4
:10234000FB691A43BB699A617B6900221A73BB69F6
:102350005B6A00221946B86900F02DFEBB699A69D4
:10236000FB691A43BB699A61BB695B6A0022194623
:10237000B86900F020FE00BF2037BD4680BD80B5A3
:1023800088B000AFF860B9607A60FB68BB61BB6978
:102390001B6ADB6A1B697B610023FB61BB68012B45
:1023A00002D0022B05D009E0FB6943F40073FB6106
:1023B00009E0FB6943F40063FB6104E0FB6943F45B
:1023C0000053FB6100BF7B691B68002B13D07B6946
:1023D0005B7B002B0FD0BB699A69FB691A43BB6911
:1023E0009A617B6900221A73BB691B6A0122194634
:1023F000B86900F0E0FDBB699A69FB691A43BB69E3
:102400009A61BB691B6A01221946B86900F0D3FDC5
:1024100000BF2037BD4680BD80B586B000AFF860F4
:102420007A603B600B46FB720023FB82FB68002B4B
:1024300001D005230FE18A4AFB681B0113440C33CA
:102440001B68002B01D0042305E1FB7A022B0ED080
:102450003B686F2B01D80723FDE03B68702B15D03C
:10246000804B814A4FF4AE7180480CF051F83B68C4
:10247000AF2B01D80723EEE03B68B02B06D07C4B96
:10248000794A4FF4B37179480CF042F83B6A002264
:102490001A607B683B613A68002178680CF00AFF9B
:1024A000FB681B016E4A1A443B695A606C4AFB6820
:1024B0001B01134408331A683B699A603B69FA7A36
:1024C0001A707B6830337B60FDF7F6FEFB7A012BD8
:1024D0003CD03B697A681A623B691B6A002283F828
:1024E00034203B691B6A3A69126A9A623B691B6A2B
:1024F0003A69126A1A633B691B6A3A69126ADA62BC
:102500003B691B6A0022DA633B691B6A594A9A637A
:102510003B691B6A3A69126A14321A613B691B6A89
:102520003A69126A5A623B695B681B783A69524998
:102530001846FDF709FF0346002B04D0386900F068
:10254000A3F80F2387E07B6840337B60FB7A002B86
:1025500039D03B697A685A623B695B6A002283F82A
:1025600034203B695B6A3A69526A9A623B695B6AEA
:102570003A69526A1A633B695B6A3A69526ADA627B
:102580003B695B6A0022DA633B695B6A3B4A9A6398
:102590003B695B6A3A69526A14321A613B695B6A49
:1025A0003A69526A5A623B695B685B783A693449B6
:1025B0001846FDF7C9FE0346002B04D0386900F029
:1025C00063F80F2347E0F968386900F09DFD3B6927
:1025D0009B681B8C9BB203F00103002B14BF0123EB
:1025E0000023DAB23B6983F82D203B699B681B8C82
:1025F0009BB29B119BB203F00303FB82FB8A214A2F
:10260000D25C3B6983F82E203B6A3A691A60144A0F
:10261000FB681B0113440C333A691A603B695B6821
:1026200093F904301846FFF73FFE3B695B6893F966
:1026300004301846FFF7FAFD3B695B6893F90230F6
:102640001846FFF7F3FD3B695B6893F903301846C2
:10265000FFF7ECFD002318461837BD4680BD00BFCC
:1026600094000020C4480100D84901000C49010031
:102670008C490100292700007F2300000D2800005D
:10268000E5220000C048010080B582B000AF78604C
:10269000786800F071FD0346002B01D003233FE072
:1026A0007B689B689B8A9BB203F04003402B17D149
:1026B0007B681B78002B05D07B685B6ADB6A1B6834
:1026C000002B0DD17B681B78012B05D07B681B6A22
:1026D000DB6A1B68002B03D17B681B7D002B01D0BC
:1026E00004231DE07B689B6800229A807B685B68FE
:1026F00093F903301846FFF7B5FD7B685B6893F9E3
:1027000002301846FFF7AEFD7B685B6893F9043032
:102710001846FFF7A7FD7B685B680022DA6000239C
:1027200018460837BD4680BD80B483B000AF7860DE
:1027300039603B685B7B002B54D0324A7B685B6816
:102740001B78194601238B40C2F814382D4A7B6848
:102750005B681B78194601238B409362294A7B688A
:102760005B681B78194601238B405362254A7B68BE
:102770005B681B78194601238B405363224B1A6810
:102780007B685B681B781B0113443A68126811462A
:102790003A6852680A44013A1A601B4B1A687B680F
:1027A0005B681B781B0113447A6892685A60164B69
:1027B0001A687B685B681B781B011A443B685B687E
:1027C000013B1B0143F0404343F0010393607B68EE
:1027D0009B687A689268928892B242F0100292B234
:1027E0009A8009E07B689B687A689268928892B2C6
:1027F00042F0020292B29A8000BF0C37BD4680BC04
:10280000704700BF00000140AC48010080B483B0B5
:1028100000AF786039603B685B7B002B54D0324A54
:102820007B685B685B78194601238B40C2F81C38D3
:102830002D4A7B685B685B78194601238B40936265
:10284000294A7B685B685B78194601238B40536299
:10285000254A7B685B685B78194601238B4053638C
:10286000224B1A687B685B685B781B0113447A68AB
:1028700092681A601D4B1A687B685B685B781B0165
:1028800013443A68126811463A6852680A44013A99
:102890005A60164B1A687B685B685B781B011A44A8
:1028A0003B685B68013B1B0143F0406343F001035D
:1028B00093607B689B687A689268928892B242F0D3
:1028C000200292B29A8009E07B689B687A689268DD
:1028D000928892B242F0010292B29A8000BF0C3705
:1028E000BD4680BC704700BF00000140AC480100FD
:1028F00080B584B000AFF860B9607A60FB70F868AA
:1029000000F03AFC0346002B01D0032364E0BB68CF
:10291000002B01D106235FE07B68002B01D101234E
:102920005AE0FB681B7D002B01D0042354E0FB68B8
:102930001B78012B01D109234EE0FB681B6A93F839
:102940003430022B01D10C2346E0FB681B6A9B6AE2
:102950001B68002B01D009233EE0FB78002B05D03B
:102960007B68B3F5806F01D9102335E0FB681B6AE3
:10297000012283F83420FB681B6A9B6ABA681A60DC
:10298000FB681B6A9B6A7A685A60FB681B6A9B6AD1
:1029900000229A60FB681B6A9B6A01221A73FB681B
:1029A0001B6A9B6AFA785A73FB681B6AFA68126A98
:1029B000926A12699A62FB681B6A9B6BFA68126AD8
:1029C000D26A1146F8689847FB681B6ABA691946CB
:1029D000F86800F005F8034618461037BD4680BD7C
:1029E00080B586B000AFF860B9607A60BB683C33F0
:1029F000002219460020FEF751FE0346FB75FB7DC1
:102A0000002B01D001231FE0BB681B6B00221A6062
:102A1000BB681B6B1A69BB681A63BB681B6B1B68BE
:102A2000002B03D1BB68002283F83420FB689B692C
:102A3000002B08D0FB689A697B681A60FB6800224B
:102A40009A610D2300E0002318461837BD4680BD6B
:102A500080B584B000AFF860084611461A460346B8
:102A60007B810B467B721346FB80F86800F084FB89
:102A70000346002B01D003233DE0FB681B78002BAD
:102A800005D0FB685B6A1B6B1B68002B09D1FB68D8
:102A90001B78012B07D0FB681B6A1B6B1B68002B84
:102AA00001D0042327E07B7A002B09D07B7A032B0B
:102AB00006D8FB88B3F5006F02D23B7E032B01D909
:102AC0000A2318E0FB689B687A891A85FB689A6874
:102AD0007B7A9BB2DB0299B2FB880B439BB26FEA15
:102AE00043436FEA53439BB29384FB689B683A7EEF
:102AF00092B29A85002318461037BD4680BD00006B
:102B000080B582B000AF054BDB687B60786800F071
:102B100007F800BF0837BD4680BD00BF9400002005
:102B200080B58EB002AF78607B689B681B899BB2D2
:102B300003F00E030C2B00F26C8101A252F823F07B
:102B4000352C0000132E0000752B0000132E000002
:102B5000912B0000132E0000A12B0000132E00006B
:102B6000132E0000132E0000132E0000132E000061
:102B70007D2B0000786800F0E1F94DE17B689B68EF
:102B80009B8E9BB2DBB21946786800F071F943E185
:102B90007B6893F82E301946786800F069F93BE1BC
:102BA0000023FB627B689B689B8ABB83BB8B03F023
:102BB00010039BB2002B05D07B689B681B88802389
:102BC000FB6209E0BB8B03F008039BB2002B03D030
:102BD000FB6A43F01003FB62BB8B03F004039BB260
:102BE000002B03D0FB6A43F02003FB62BB8B03F096
:102BF00002039BB2002B03D0FB6A43F04003FB624D
:102C0000FB6A002B00F007817B681B7D83F00103CA
:102C1000DBB2002B00F0FF807B689A69FB6A1A43E5
:102C20007B689A617B685B6A04221946786800F0C9
:102C3000C2F9F0E00023BB627B689B68B3F84430C4
:102C40009BB203F00F037B837B689B68B3F8403033
:102C50009BB203F001033B837B8B002B00F0C98008
:102C60003B8B002B00F0C58007F10C0319460020B8
:102C7000FEF746FB0346002B01D00023FB607B6878
:102C80009B68B3F848309BB21B037B617B689B68F1
:102C9000B3F844309BB21B099BB21A467B691343BD
:102CA0007B617B8B03F00103002B6FD07B689B68FB
:102CB0009B8C9BB203F40043B3F5004F4DD100232E
:102CC00087F827304FF400633B610123FB837B6966
:102CD0003F2B06D87B695B02DA083B69D31A3B625B
:102CE00028E07B697F2B09D87B691B02DA083B69E6
:102CF000D31A3B62012387F827301BE07B69FF2B47
:102D000009D87B69DB01DA083B69D31A3B620223ED
:102D100087F827300EE07B691B0AFB837B699A01E9
:102D2000FB8BDB00B2FBF3F23B69D31A3B6203235C
:102D300087F827303B6A9AB2F98B97F827300093CF
:102D4000134601227868FFF783FEFB68DA007B698F
:102D5000B2FBF3F27B689A6206E0FB68DA007B69FB
:102D6000B2FBF3F27B689A627B68DB68002B3DD094
:102D70007B6893F82C30002B38D07B68DB687A684E
:102D800010697A68926A032198472FE07B8B03F0E1
:102D90000203002B03D0BB6A43F40073BB627B8B3E
:102DA00003F00403002B03D0BB6A43F48073BB62BF
:102DB0007B8B03F00803002B03D0BB6A43F48063D2
:102DC000BB627B68DB68002B0DD07B685B6A93F885
:102DD0003430022B07D17B68DB687A681069BA6AE5
:102DE0000521984702E07B68BA6ADA617B689B68D4
:102DF0001B887B689B687A689268B2F8402092B220
:102E000022F0070292B2A3F840207B6800221A75D4
:102E100002E000BF00E000BF00BF3037BD4680BD0C
:102E200080B582B000AF074BDB687B607B681B6AB4
:102E300001221946786800F0BEF800BF0837BD4689
:102E400080BD00BF9400002080B582B000AF074B6A
:102E5000DB687B607B685B6A00221946786800F05B
:102E6000AAF800BF0837BD4680BD00BF940000200F
:102E700080B586B000AF78600B46FB707B685B6AFC
:102E8000DB6A7B617B691B683B613B69002B05D07A
:102E90007B691B7B002B01D0012300E00023FB7327
:102EA000FB7B03F00103FB73FB7B002B28D00EE0C0
:102EB0007B699B683A6913447A689268128892B277
:102EC000D2B21A707B699B685A1C7B699A60FB7846
:102ED0005A1EFA70002B05D07B699A687B695B6883
:102EE0009A42E5D37B699A687B695B689A4221D1F3
:102EF0007B685B6A00221946786800F05CF819E08C
:102F00007B68DB68002B06D07B68DB687A68106919
:102F10000022022198477B691B68002B0AD17B693C
:102F20001B7B83F00103DBB2002B03D07B689B6823
:102F30001B8800BF00BF1837BD4680BD80B584B078
:102F400000AF78607B681B6ADB6A1B68002B2ED0A1
:102F50007B681B6ADB6A1B7B002B28D07B681B6AA3
:102F6000DB6A1B68FB607B689B687A68126AD26ABE
:102F70009268F9680A441278D2B292B21A807B68D9
:102F80001B6ADB6A9A6801329A607B681B6ADB6A9B
:102F90009A687B681B6ADB6A5B689A4207D37B6826
:102FA0001B6A01221946786800F005F800BF00BFCF
:102FB0001037BD4680BD80B586B000AFF860B960FF
:102FC0001346FB71BB68DB6A00221A73BB68DB6ABD
:102FD0001A69BB68DA62FB79012B0AD1FB689B682E
:102FE000FA689268928892B222F0120292B29A80A3
:102FF0001BE0FB689B68FA689268928892B222F0A4
:10300000200292B29A80FB6893F82D3083F001037E
:10301000DBB2002B09D0FB689B68FA689268928843
:1030200092B222F0010292B29A80FB68DB68002B18
:1030300038D0BB6893F83430022B33D1FB689B69DE
:103040007B61FB6800229A61BB681B6B1B683B615C
:10305000BB681B6B00221A60BB681B6B1A69BB68DC
:103060001A63BB681B6B1B68002B03D1BB68002273
:1030700083F834207B69002B07D0FB68DB68FA6893
:1030800010697A690421984706E0FB68DB68FA68F2
:103090001069F9793A699847BB683C331846FEF7DE
:1030A000A1FB20E0FB79012B0ED100BFFB689B68E0
:1030B0009B8A9BB203F04003402BF7D1FB689B68CF
:1030C0001B8F9BB2002BF1D1BB681B6B1B691B686C
:1030D000002B03D1BB68002283F83420BB683C334B
:1030E0001846FEF77FFBBB68DB6A1B7B002B06D014
:1030F000BB689B6BBA68D26A1146F868984700BFF4
:103100001837BD4680BD000080B485B000AF786040
:1031100039603A681346DB009B1A5B00154A13447A
:10312000FB607B689B68FA6812889A817B689B6861
:10313000FA6852881A857B689B68FA6892889A8434
:103140007B689B68FA68D2889A857B689B68FA6876
:1031500012891A847B689B68FA6852899A877B680F
:103160009B68FA6892899A8000BF1437BD4680BC7C
:10317000704700BFB048010080B485B000AF7860F0
:103180000023FB6010E00D4AFB681B0113440C3365
:103190001A687B689A4204D17B68002B01D0002317
:1031A00006E0FB680133FB60FB68002BEBD00323D8
:1031B00018461437BD4680BC704700BF94000020FD
:1031C00080B582B002AF084A074B1B6843F4A003E6
:1031D0001360064B00937023054A00210020FFF77F
:1031E0001BF900BFBD4680BD00000240081500204D
:1031F0007016002090B58BB002AF7860214A07F1BD
:10320000140307CA03C31A701F4A07F11003126898
:10321000114619800233120C1A701C4B1C6807F1FE
:10322000140318460CF0FAFB024607F1140107F1EB
:103230000C03009300232046FFF75AFB134B1C6836
:1032400078680CF0EBFB024607F10C0300930023B7
:1032500079682046FFF74CFB0C4B1C6807F1100304
:1032600018460CF0DBFB024607F1100107F10C03D6
:10327000009300232046FFF73BFB00BF2437BD46E9
:1032800090BD00BFF4490100004A0100081500206C
:1032900090B587B002AF7860154A07F10C03126849
:1032A000114619800233120C1A70124B1C68786890
:1032B0000CF0B4FB024607F1080300930023796881
:1032C0002046FFF715FB0B4B1C6807F10C03184653
:1032D0000CF0A4FB024607F10C0107F10803009370
:1032E00000232046FFF704FB00BF1437BD4690BD06
:1032F000004A01000815002080B582B000AF0A4BDB
:103300007B600A4B3B6007E03B681A1D3A607A68B5
:10331000111D796012681A603B68054A9342F3D325
:1033200000F082F8FCF772FF306701000000002017
:10333000700A002080B400AFFEE7000080B487B0C0
:1033400000AF334B4FF400421A60314B1B68002B27
:1033500000D1FEE72F4B1B6803F00303032B51D86A
:1033600001A252F823F000BF79330000813300003E
:1033700089330000F1330000274B284A1A603CE0F3
:10338000254B264A1A6038E0224B1B6803F4006381
:10339000002B02D0214B7B6101E0204B7B611D4B58
:1033A000DB6803F01F033B611A4BDB68DB0A03F0A9
:1033B0000F03FB60174BDB681B0C03F00103BB60C2
:1033C000144BDB681B0A03F001037B607A69BB685E
:1033D00002FA03F33A6902FB03F2FB68B2FBF3F271
:1033E0007B6822FA03F37B610B4A7B69136004E07C
:1033F0000B4B1B68084A136000BF074B1B68094A48
:10340000136000E000BF1C37BD4680BC704700BFA2
:103410000C15002000C304401015002080BA8C0158
:10342000141500201815002080B584B000AF0121CC
:10343000062000F01FF8EFF310837B607B68FB60D1
:1034400072B60A4B0A4A9A60084B4FF4E0225A625D
:10345000BFF36F8FBFF34F8FFB68BB60BB6883F315
:10346000108800BF1037BD4680BD00BF00ED00E0F2
:103470000000000080B483B000AF78600B46FB70A2
:103480007B6823F00603002B01D0012317E00E4BCD
:1034900044F65902DA60FB78002B07D00A490A4B40
:1034A0005A697B685B0813434B6107E00649064B8A
:1034B0005A697B685B08DB4313404B610023184665
:1034C0000C37BD4680BC704700C0044080B483B058
:1034D00000AF7860044A7B681A607B6818460C3736
:1034E000BD4680BC704700BFF44A010080B582B081
:1034F00000AF78607868FFF7E9FF1421786801F081
:10350000E5FF7B6818460837BD4680BD80B582B0B0
:1035100000AF7860094A094B9B8E9BB243F03003A1
:103520009BB293867B6877229A74786800F0C0F823
:10353000034618460837BD4680BD00BF0000024064
:1035400080B483B000AF7860002318460C37BD46C6
:1035500080BC704780B483B000AF78600023184609
:103560000C37BD4680BC704780B584B000AF786032
:103570007B685B691846FDF7DFF90346FB73FB7B4D
:10358000002B0CBF01230023DBB2002B01D0002352
:1035900002E0FB7B43F0806318461037BD4680BDD8
:1035A00080B584B000AFF860B9607A607A68B968B5
:1035B000F86800F0BBF8034618461037BD4680BDDA
:1035C00080B584B000AF7860396007F1080302224B
:1035D0001946786800F0AAF80346FB60FB68002BE8
:1035E00016D13B7A1B021AB27B7A1BB213431BB271
:1035F0007B817B89DB10184609F098FC03464FF06D
:103600008341184609F09AFD03461A463B681A6042
:10361000FB6818461037BD4680BD000080B586B0F7
:1036200000AF786039603B68002B05D11C4B1D4A08
:103630008D211D480AF06CFF07F10C030222194688
:10364000786800F073F80346BB60BB68002B22D19A
:103650003B7B1B021AB27B7B1BB213431BB2FB8268
:10366000FB8ADB10184609F061FC03464FF08341EA
:10367000184609F063FD03463B610C49386909F0BF
:10368000A9FC03464FF08441184609F09BFB034612
:103690001A463B681A60BB6818461837BD4680BD9D
:1036A000044A01009C4B01001C4A01006666E63F8B
:1036B00080B584B000AF78600023FB737B6803F1B2
:1036C00018017B68143330220020FDF7C7F8034649
:1036D000FB73FB7B002B20D17B685B691846FDF7F1
:1036E000A9F90346FB73FB7B002B0CBF01230023CE
:1036F000DBB2002B11D07B685B690B491846FDF7E4
:10370000B1F90346FB73FB7B002B0CBF01230023A5
:10371000DBB2002B01D0002302E0FB7B43F080638F
:1037200018461037BD4680BD801A060080B58CB0A3
:1037300000AFF860B9607A600023FB777B68012BEB
:1037400005D8224B224AC12122480AF0E1FEBB687B
:10375000002B05D1204B1E4AC2211E480AF0D8FE7C
:10376000FB685A69FB689B7C9BB219461046FDF7C3
:10377000DDF90346FB77FB7F002B20D174233B74DC
:1037800007F110033B620123BB84BB68BB620223C9
:10379000BB85012387F82E30012387F82F30FB6883
:1037A0005B6907F1180207F120011846FDF7DEF802
:1037B0000346FB77FB7F002B01D1002302E0FB7F58
:1037C00043F0806318463037BD4680BDAC4A0100E7
:1037D000044C01001C4A0100044A010080B582B07B
:1037E00000AF7860054A7B681A607B681846FFF76F
:1037F0006DFE7B6818460837BD4680BDC84A01008B
:1038000080B582B000AF78607868FFF7E7FF4821A5
:10381000786801F05BFE7B6818460837BD4680BDBE
:1038200080B483B000AF7860044A7B681A607B681C
:1038300018460C37BD4680BC704700BFF84D0100EC
:1038400080B582B000AF78607B681846FFF7E8FF6C
:10385000034A7B681A607B6818460837BD4680BDFE
:10386000F44A010080B582B000AF78607B681846EA
:10387000FFF7E6FF034A7B681A607B681846083743
:10388000BD4680BDC84A01002DE9B0438AB006AFED
:103890007860396000F0BEF800F050FA0246534BF1
:1038A0001A60534B77225A70514B01229A70504B39
:1038B000504A9A644E4B504ADA644D4B4F4A1A654F
:1038C0004B4B19221A710023FB73494800F0BAFAD6
:1038D0000346FB73464B022283F83820444B0322F5
:1038E00083F83A20424B042283F83920404B0222CD
:1038F00083F83B203E4B012283F83E203C4B4FF4A3
:10390000A072A3F840203A4B9622A3F84220384BED
:10391000012283F84420DF23BB73BB7B9BB2344975
:10392000184600F0CDFB0346FB73314800F09CFDC8
:103930000346FB7307F10C032D49184600F0F8FD10
:103940002B492F4800F058FE0346FB732C4BB3F96C
:103950000430184609F0EAFA03462A49184609F0E5
:10396000EDFB0346184609F0D3F980468946244BFF
:103970009B68184609F0D6FA03462249184609F012
:10398000DDFB0346184609F0C3F904460D461C4BFF
:10399000DB68184609F0C6FA03461B49184609F0C9
:1039A000CDFB0346184609F0B3F902460B4614490D
:1039B00009690491CDE90223CDE9004542464B4611
:1039C000124913480BF026FF1148FFF761FCBB8931
:1039D000184600F019F9064B93F84430012BAFD18B
:1039E000034800F041FD0346FB73A9E7BC15002026
:1039F00050150020353C0000B93C0000093C000097
:103A0000A81500200000C84200007A44684C01005C
:103A1000E016002080B582B000AF6E4B00221A8005
:103A200000F0FCF9FDF70EFC0346FB71FB79002B5F
:103A300014D0C923684A694969480BF0EBFE68480D
:103A4000FFF7D8FBFB79674A674965480BF0E2FE50
:103A50006348FFF71DFC00200AF07EFD01210120D4
:103A6000FDF78EFC0346FB71FB79002B14D0CC23B1
:103A7000594A5A495A480BF0CDFE5948FFF7BAFB4C
:103A8000FB795A4A584956480BF0C4FE5448FFF790
:103A9000FFFB00200AF060FD01210020FDF770FC13
:103AA0000346FB71FB79002B14D0CF234A4A4B49C4
:103AB0004B480BF0AFFE4A48FFF79CFBFB794C4AA2
:103AC000494947480BF0A6FE4548FFF7E1FB0020B7
:103AD0000AF042FDFFF774FB10214648FCF71EFD7B
:103AE0000346BB71BB79002B14D0D7233A4A3B491C
:103AF0003B480BF08FFE3A48FFF77CFBBB793E4A10
:103B0000394937480BF086FE3548FFF7C1FB0020E6
:103B10000AF022FD01224FF480510120FCF74EFDF6
:103B20000346BB71BB79002B14D0D9232A4A2B49F9
:103B30002B480BF06FFE2A48FFF75CFBBB792F4A3E
:103B4000294927480BF066FE2548FFF7A1FB002016
:103B50000AF002FD4FF480510120FCF77BFD034683
:103B6000BB71BB79002B14D0DB231B4A1B491C48BB
:103B70000BF050FE1A48FFF73DFBBB79204A1A496B
:103B800017480BF047FE1648FFF782FB00200AF0AB
:103B9000E3FCFCF7FDFC0346BB71BB79002B14D0A2
:103BA000DD230D4A0D490E480BF034FE0C48FFF79B
:103BB00021FBBB79134A0C4909480BF02BFE08483E
:103BC000FFF766FB00200AF0C7FC00BF0837BD46C0
:103BD00080BD00BF082C0040884C0100044D01004E
:103BE000E01600200C4D0100344D0100544D010041
:103BF000784D010008160020A44D0100B44D0100CD
:103C0000CC4D0100E04D010080B485B000AF78607C
:103C10007B6840F6282202FB03F3FB60FB68002B65
:103C200003D0FB68013BFB60F8E700BF1437BD46DB
:103C300080BC704780B58AB000AF3A601A46034630
:103C4000FB710B46BB711346BB801A4B1B68FA799C
:103C500092B211461846FCF769FF0346FB75FB7DDF
:103C6000002B02D0FB7D5BB220E0BB793B7207F1F9
:103C70000803BB610123BB833B683B62BB88BB84F9
:103C8000012387F82630012387F82730094B1B686A
:103C900007F1100207F118011846FCF767FE03460A
:103CA000FB75FB7D002B01D10023FFE71846283769
:103CB000BD4680BD1C15002080B58AB000AF3A60BB
:103CC0001A460346FB710B46BB711346BB801A4B69
:103CD0001B68FA7992B211461846FCF727FF034693
:103CE000FB75FB7D002B02D0FB7D5BB220E0BB7936
:103CF0003B7207F10803BB610123BB833B683B6256
:103D0000BB88BB84002387F82630012387F827303F
:103D1000094B1B6807F1100207F118011846FCF760
:103D200025FE0346FB75FB7D002B01D10023FFE739
:103D300018462837BD4680BD1C15002080B582B0CE
:103D400000AF0023FB711D4A1C4B9B8E9BB243F0BE
:103D500030039BB293861A4B30221A490020FCF79D
:103D60007DFD0346FB71FB79002B20D1144B1B68B2
:103D70001846FCF75FFE0346FB71FB79002B0CBF76
:103D800001230023DBB2002B11D00D4B1B680E4921
:103D90001846FCF767FE0346FB71FB79002B0CBF4E
:103DA00001230023DBB2002B01D0002302E0FB79CA
:103DB00043F0806318460837BD4680BD00000240CE
:103DC0001C15002020150020801A060080B582B046
:103DD00000AF786039607B68012B0CD13B684FF6EF
:103DE000FF72934207D10648FFF73CFD054A06499A
:103DF000034801F0CDFA00BF0837BD4680BD00BFC3
:103E0000C015002000000020DD37000080B500AFA5
:103E10004FF6FF710120FFF7D9FF80BD80B400AFDE
:103E2000054B064A1A60064B4FF4A8721A6000232D
:103E30001846BD4680BC7047000002400005500097
:103E40004000024080B584B000AF7860786801F02F
:103E500004FA0346FB7397F90F30002B20D17868E2
:103E600000F0EFF80346FB7397F90F30002B17D1E2
:103E700079687B680122D02000F018F80346FB73B4
:103E800097F90F30002B0BD17B681B78612B05D184
:103E9000786800F0DDFB0346FB7301E0FD23FB7354
:103EA00097F90F3018461037BD4680BD90B587B0E2
:103EB00000AFB9607B600346FB731346BB81786833
:103EC00001F0CBF90346FB7597F91730002B26D18B
:103ED0007B689B78002B0ED1FB7B7968184601F03C
:103EE000EEF80346FB7597F91730002B03D1FB7BE7
:103EF00063F07F03FB737B689C6C7B685878BB899D
:103F0000F97BBA68A04703461A467B6883F85420B9
:103F10007B6893F95430002B01D0FE23FB7597F991
:103F2000173018461C37BD4690BDB0B590B000AFF5
:103F3000F860B9603B601346FB7107F11403282257
:103F4000002118460BF0B6F9386801F086F90346EF
:103F500087F83F3097F93F30002B6CD1FB79002B6D
:103F600064D0FB79132B61D80023BB8737E03B6813
:103F70009B78002B19D1BB8FFA6813441B783968E2
:103F8000184601F09CF8034687F83F30BB8F5B0072
:103F9000BA8FF9680A44127802F07F02D2B207F1B0
:103FA00040010B4403F82C2C0AE0BB8F5B00BA8F56
:103FB000F9680A44127807F140010B4403F82C2CED
:103FC000BB8F5B000133BA8FB9680A44127807F1DE
:103FD00040010B4403F82C2CBB8F0133BB87FB79CA
:103FE0009BB2BA8F9A42C2D397F93F30002B21D1AE
:103FF0003B68DC6C3B685878397DFB799BB25B0091
:104000009BB2013B9DB207F114035A1C2B46A047FB
:1040100003461A463B6883F854203B6893F95430B2
:10402000002B07D0FE2387F83F3003E0FC2387F8FE
:104030003F3000E000BF97F93F3018464037BD469B
:10404000B0BD80B584B000AF7860E023BB73B62309
:104050007B73786801F001F90346FB7397F90F3021
:10406000002B27D17B689B78002B04D1786801F066
:104070008BF80346FB7397F90F30002B1AD107F129
:104080000D0107F10E007B680122FFF74EFF03468A
:10409000FB737B681B6D0A20984797F90F30002B44
:1040A00008D17B689B78002B04D1786801F06CF80C
:1040B0000346FB7397F90F3018461037BD4680BD95
:1040C00080B588B000AF03463960FB800023FB76E3
:1040D0000023BB7707F1140300221A609A8007F1CE
:1040E0000C0300221A609A803B6893F844307B7777
:1040F000386801F0B2F80346FB7797F91F30002BC0
:1041000040F0AC81FB8803F00803002B04D0386832
:1041100000F0C8FB0346FB773B68002283F844208D
:1041200097F91F30002B04D1386800F09DF9034641
:10413000FB77FB8803F01003002B3FD03B6803F1B3
:104140003B003B680722002101F04DF80346FB7756
:1041500075233B7797F91F30002B08D107F11B011E
:10416000387F3B680122FFF7A1FE0346FB77FB88FF
:1041700003F01003002B10D0FB7E5BB223F01C0376
:104180005AB23B6893F83B309B005BB203F01C03D0
:104190005BB213435BB2DBB2FB76BB7F07F120025D
:1041A00013443A7F03F80C2CBB7FFA7E07F1200101
:1041B0000B4403F8142CBB7F0133BB77FB8803F05F
:1041C0002003002B39D03B6803F13D003B680822F7
:1041D000002101F008F80346FB7770233B7797F93D
:1041E0001F30002B08D107F11B01387F3B680122EB
:1041F000FFF75CFE0346FB77FB7E5BB223F0080310
:104200005AB23B6893F83D305BB203F008035BB2EF
:1042100013435BB2DBB2FB76BB7F07F12002134492
:104220003A7F03F80C2CBB7FFA7E07F120010B4488
:1042300003F8142CBB7F0133BB77FB8803F0030327
:10424000002B52D03B6803F139003B680522002166
:1042500000F0C9FF0346FB7774233B7797F91F30C3
:10426000002B08D107F11B01387F3B680122FFF7C3
:104270001DFE0346FB77FB8803F00103002B0DD0E6
:10428000FB7E5BB203F01F035AB23B6893F83930F0
:104290005B015BB213435BB2DBB2FB76FB8803F0DE
:1042A0000203002B10D0FB7E5BB223F01C035AB23A
:1042B0003B6893F83A309B005BB203F01C035BB29F
:1042C00013435BB2DBB2FB76BB7F07F120021344E2
:1042D0003A7F03F80C2CBB7FFA7E07F120010B44D8
:1042E00003F8142CBB7F0133BB77FB8803F0040376
:1042F000002B39D03B6803F138003B6805220021D0
:1043000000F071FF0346FB7772233B7797F91F306C
:10431000002B08D107F11B01387F3B680122FFF712
:10432000C5FD0346FB77FB7E5BB223F007035AB261
:104330003B6893F838305BB203F007035BB213437A
:104340005BB2DBB2FB76BB7F07F1200213443A7FFE
:1043500003F80C2CBB7FFA7E07F120010B4403F815
:10436000142CBB7F0133BB77FB8803F0C003002B09
:1043700062D03B6803F13E003B680122002100F05F
:1043800032FF0346FB7797F91F30002B09D13B68BA
:1043900003F13C003B680A22002100F024FF0346A1
:1043A000FB7771233B7797F91F30002B08D107F17A
:1043B0001B01387F3B680122FFF778FD0346FB773E
:1043C000FB8803F04003002B10D0FB7E5BB223F090
:1043D00010035AB23B6893F83E301B015BB203F006
:1043E00010035BB213435BB2DBB2FB76FB8803F0D6
:1043F0008003002B0FD0FB7E5BB223F00F035AB279
:104400003B6893F83C305BB203F00F035BB213439D
:104410005BB2DBB2FB76BB7F07F1200213443A7F2D
:1044200003F80C2CBB7FFA7E07F120010B4403F844
:10443000142CBB7F0133BB7797F91F30002B09D1B8
:10444000BA7F07F10C0107F114003B68FFF76DFD1F
:104450000346FB773B687A7F83F8442097F91F3047
:1044600018462037BD4680BD80B584B000AF786067
:104470000023BB7374233B73786800F0EEFE0346A1
:10448000FB7397F90F30002B4CD107F10D017B68BE
:1044900001227420FFF70AFD0346FB7397F90F30E2
:1044A000002B19D17B7B03F00303BB73BB7B002B79
:1044B00012D07B7B23F00303DBB27B7307F10D018A
:1044C00007F10C007B680122FFF72FFD0346FB7309
:1044D0007B681B6D0A209847BB7B002BD5D17B687E
:1044E00093F84430002B1DD07B7B5BB223F0030399
:1044F0005AB27B6893F844305BB203F003035BB2BB
:1045000013435BB2DBB27B7397F90F30002B09D1F9
:1045100007F10D0107F10C007B680122FFF705FD93
:104520000346FB7397F90F3018461037BD4680BD20
:1045300080B487B000AF786039602D4A07F1080376
:1045400092E803001860043319803B6893F839300F
:1045500007F11802134413F8103C7B613B6893F891
:104560003A3007F11802134413F8103C1A467B69DD
:1045700013447B613B6893F8383007F11802134409
:1045800013F8103C1A467B6913447B617B6940F247
:10459000AB7202FB03F33B613B6903F274733B6153
:1045A0003B6903F651133B613B6903F5FA733B61C9
:1045B0003B69104AA2FB03239B093B613B69013322
:1045C0003B613B699AB27B681A803B6893F83E3046
:1045D000002B08D07B681A883B68B3F8423013443C
:1045E0009AB27B681A8000BF1C37BD4680BC7047FA
:1045F000084E0100D34D621080B584B000AF7860E2
:104600003960386800F029FE0346FB7397F90F30D4
:10461000002B17D13968786800F098FC0346FB73CB
:1046200097F90F30002B0DD17B681B785BB2002B04
:1046300004DA3B68012283F8452003E03B6800224E
:1046400083F8452097F90F3018461037BD4680BDD6
:1046500080B58EB000AF786007F10C0329220021ED
:1046600018460AF027FE0023FB72786800F0F5FD7B
:10467000034687F8373097F93730002B40F00C812C
:1046800007F10C017B6819228920FFF70FFC034614
:1046900087F8373097F93730002B0BD107F10C032F
:1046A00003F119017B681022E120FFF7FFFB0346AD
:1046B00087F8373097F82E301B021AB297F82D3052
:1046C0001BB213431BB29AB27B68DA82BB7B1B021C
:1046D0001AB27B7B1BB213431AB27B681A83FB7B33
:1046E0005AB27B689A76BB7C1B021AB27B7C1BB2E7
:1046F00013431BB29AB27B689A833B7D1B021AB2AA
:10470000FB7C1BB213431AB27B68DA837B7D5AB2FF
:104710007B6883F820203B7E1B021AB2FB7D1BB214
:1047200013431AB27B685A84BB7E1B021AB27B7E8B
:104730001BB213431AB27B689A843B7F5AB27B68E0
:1047400083F82620FB7E5AB27B6883F8272097F8EF
:1047500020301B021AB2FB7F1BB213431AB27B68D4
:104760001A8597F822301B021AB297F821301BB233
:1047700013431AB27B685A8597F823207B6883F825
:104780002C2097F827301B011AB297F826301BB25D
:1047900003F00F031BB213431BB29AB27B681A815A
:1047A00097F825301B011AB297F826301B09DBB2A7
:1047B0001BB213431BB29AB27B685A8197F8283018
:1047C0005AB27B681A7397F829305AB27B685A73C9
:1047D00097F82A305AB27B689A7397F82B207B6837
:1047E000DA7397F82C305AB27B681A7497F8313024
:1047F0005AB27B685A7497F830301B021AB297F895
:104800002F301BB213431AB27B685A8297F83230AA
:104810005AB27B681A7597F93730002B35D107F1FA
:104820000B017B6801220220FFF740FB034687F85B
:104830003730FB7A03F03003002B00DA0F331B1103
:10484000DAB27B6883F8342097F93730002B1CD11B
:1048500007F10B017B6801220020FFF727FB0346CD
:1048600087F83730FB7A5AB27B6883F8352097F99E
:104870003730002B09D107F10B017B68012204209E
:10488000FFF714FB034687F83730FB7A5BB21B1146
:104890005AB27B6883F8362097F937301846383794
:1048A000BD4680BD80B584B000AF7860786800F008
:1048B000D4FC0346FB7397F90F30002B32D1002351
:1048C000BB8100233B817B6893F84430012B19D1D5
:1048D0005A233B737B68B3F840307968184600F080
:1048E00093FA03463B7264237B737B68B3F84230D0
:1048F000184600F007FB03467B727B68002283F8B2
:104900003C2001E00123FB7397F90F30002B09D104
:1049100007F1080107F10C007B680222FFF705FB95
:104920000346FB7397F90F3018461037BD4680BD1C
:104930002DE9F04F8BB000AF786039607B68DA10FA
:104940003B68DB8A5B00D31A4FEAE374C7E908349B
:104950003B68B3F918301BB24FEAE3743A6A04FBC0
:1049600002F17A6A03FB02F20A44396AA1FB0334BA
:10497000224414464FEAD32A4AEA445A4FEAE42B27
:10498000C7E906ABD7E9083462104FEA3301D7E92B
:10499000083464104FEA330303FB02FE01FB04F00A
:1049A0007044A1FB0334021914464FEA133848EA55
:1049B00004584FEA2439C7E904893B6893F91A304F
:1049C0001B014FEAE3743A6904FB02F17A6903FBC5
:1049D00002F20A443969A1FB0334224414469D0BB8
:1049E00045EA8445A613C7E90456BA693B691344EE
:1049F0001A463B681A633B681A6B13469B001344C4
:104A000080331B12FB81B7F90E3018462C37BD4698
:104A1000BDE8F08F80B487B000AF786039603B6844
:104A20001B6B5B10A3F57A433B613B699B103A69B2
:104A3000921002FB03F3DB123A6892F9262002FB84
:104A400003F39B10FB603B68B3F924301A463B69C3
:104A500003FB02F35B00FA681344FB60FB689A10E7
:104A60003B68B3F922301B041344FB603B699B1085
:104A70003A69921002FB03F35B133A6892F9202023
:104A8000520102FB03F3DA103B68B3F91E301946FA
:104A90003B6903FB01F35B1013443B613B699B14CF
:104AA0003B613B6903F500433A68928B02FB03F3D9
:104AB000DB133B617B68C3F580137B61FB681B13D1
:104AC0007A69D31A1A4640F6354303FB02F37B6139
:104AD0007B69B3F1804F06DB7A693B6992FBF3F3A4
:104AE0005B007B6105E07B695A003B6992FBF3F355
:104AF0007B613B68B3F92A3019467B69DB107A6920
:104B0000D21002FB03F35B1303FB01F31B133B61A6
:104B10007B699B103A68B2F9282002FB03F35B1310
:104B2000FB607B691B127A69121202FB03F37A693C
:104B3000121202FB03F33A6892F82C2002FB03F3F3
:104B40005B14BB603A69FB681A44BB681A443B6853
:104B500093F92730DB0113441B117A6913447B61FD
:104B60007B6918461C37BD4680BC704780B58AB04B
:104B700000AF03463960FB803B681A6B13469B000D
:104B8000134480331B123B62FA883B681B891B016C
:104B9000D21A3B6893F90C3019463B6A03FB01F3C8
:104BA0003C4981FB03014911DB17CB1A5B10D31A77
:104BB000FB613B685B8918463B6893F90D301A46E8
:104BC0003B6A03FB02F3334A82FB03125211DB17E9
:104BD000D21A3B6893F90E3019463B6A03FB01F386
:104BE0002C4981FB03E14911DB17CB1A396A01FB20
:104BF00003F39B11274981FB03E14911DB17CB1A12
:104C0000134403F5804303FB00F39B12BB61FB6974
:104C1000BA6902FB03F37B613B68DB7BDB013B6131
:104C20003B6893F910301A463B6A03FB02F3194ABA
:104C300082FB03125211DB17D21A3B6913441B117A
:104C40003B617B699B137A69921302FB03F39B120E
:104C5000FB603B69FA6802FB03F35B10BB607A6997
:104C6000BB6813449B124FF47A7202FB03F31B13CD
:104C70007B627B6A084A934202DD074B7B6204E059
:104C80007B6A002B01DA00237B627B6A1846283797
:104C9000BD4680BD1F85EB51A08601002DE9B04FB8
:104CA000AEB000AF03463A61FB820B467B75544BB6
:104CB00007F15C041D460FCD0FC40FCD0FC40FCDFF
:104CC0000FC495E80F0084E80F004E4B07F11C0459
:104CD0001D460FCD0FC40FCD0FC40FCD0FC495E8E7
:104CE0000F0084E80F003B6993F9363059B24FEA60
:104CF000E1720B461446A000F860F86840EA937031
:104D0000F8609B00BB60D7E902345B1844EB0204F7
:104D100040F23C514FF00002C91842EB04027B7D87
:104D20009B0007F1B800034453F85C3C4FF00004CB
:104D300003FB02F501FB04F02844A1FB0334021934
:104D400014461A0C3A603A6842EA04423A60231464
:104D50007B60D7E90034C7E92C34FB8A4FF00004AC
:104D60004FEAC43B4BEA534B4FEAC33A1AF17F4137
:104D70004BF1FF32D7E92C345B1844EB0204C7E94E
:104D80002A347B7D9B0007F1B802134453F89C3C06
:104D90004FF00004D7F8B02004FB02F1D7F8B4209C
:104DA00003FB02F20A44D7F8B010A1FB03342244FB
:104DB00014464FEA532848EAC4584FEA6429C7E921
:104DC0002889D7E92A3462104FEA3301D7E9283419
:104DD00011EB030842EB040940464946D7E92A345F
:104DE0001A46234608F046FA03460C46C7F89C309C
:104DF000D7F89C301846B837BD46BDE8B08F00BF25
:104E0000104E0100504E010080B48BB000AF03463D
:104E10003960FB80FB88B3F5C87F02D94FF4C873B3
:104E2000FB803B6893F904301A463B6893F91430D1
:104E300003FB02F3304A82FB03129211DB17D31AF1
:104E40001B027B623B6893F9113003F544713B68A8
:104E5000B3F9123003F5163303F29913FA8802FB03
:104E600003F213469B001344244A82FB03025211AF
:104E7000DB17D31A03F54813214A82FB0302921071
:104E8000DB17D31A03FB01F33B623B6ADA0F1344CF
:104E90005B101A467B6A1344FB613B6893F834301D
:104EA0000433FA6992FBF3F3BB613B6893F9353045
:104EB0001A4613469B0113445B00134403F58033E9
:104EC0007B61BA697B6992FBF3F3A3F1FA021346A3
:104ED0001B0113445B003B613B693233074A82FB91
:104EE00003125211DB17D31AFB73FB7B18462C37C6
:104EF000BD4680BC704700BFD34D62101F85EB518B
:104F00006766666680B485B000AF0346FB80002309
:104F1000FB73FB88B3F57C6F08D3FF23BB730FE0F3
:104F2000FB889B08FB80FB7B0133FB73FB883F2BDB
:104F3000F6D8FB88DAB2FB7B9B01DBB21344BB7370
:104F4000BB7B18461437BD4680BC704780B58AB01D
:104F500000AF7860396007F1080300221A605A60D8
:104F60009A60C3F80B200A2387F82630386800F0CF
:104F700074F9034687F8273097F92730002B40F063
:104F8000878007F108013B680F221D20FEF78EFF86
:104F9000034687F827303B7A23F07F03DAB27B6839
:104FA0001A703B7A03F00F03DAB27B685A707A7A90
:104FB0007B689A70BB7A1A03FB7A1B0113433A7B16
:104FC0001209D2B213433B627B7B1A03BB7B1B01EA
:104FD0001343FA7B1209D2B21343FB613B7C9BB2B1
:104FE0001B029AB27B7C9BB213437B837B7D9BB27B
:104FF0009B009AB2BB7D9B09DBB29BB213433B8300
:10500000BB7D03F00F03FB757B681B785AB2BB7D39
:105010005BB203F020035BB213435BB2DAB27B688E
:105020001A707B681B785AB2BB7D5BB203F0100329
:105030005BB213435BB2DAB27B681A707B681B7891
:105040005BB2002B20DA3968F869FFF771FC034680
:105050001A467B689A803968386AFFF7DBFC02469B
:105060007B689A607B8B39681846FFF77FFD0246A4
:105070007B68DA60F97D3B8B3A681846FFF70EFED5
:1050800002467B681A610DE03B681B6D0A20984759
:1050900097F82630013B87F8263097F82630002B0A
:1050A0007FF46AAF97F82630002B02D1022387F8ED
:1050B000273097F9273018462837BD4680BD90B570
:1050C00085B000AF03463960FB71386800F0C5F861
:1050D0000346FB7397F90F30002B4FD197F9073038
:1050E000002B02DA0023BB7301E01023BB733B6883
:1050F000DB78BA7B9A4241D03B68BA7BDA703B6876
:105100009C6C3B68587807F10D020123F321A047FE
:1051100003461A463B6883F854203B6893F95430A1
:10512000002B01D0FE23FB7397F90F30002B25D104
:105130007B7B23F01003DBB27B733B68DB785BB2D5
:1051400003F010035AB27B7B5BB213435BB2DBB25A
:105150007B733B68DC6C3B68587807F10D020123D8
:105160007321A04703461A463B6883F854203B68E6
:1051700093F95430002B01D0FE23FB7397F90F30C5
:1051800018461437BD4690BD90B585B000AF786025
:10519000786800F062F80346FB7397F90F30002B34
:1051A0001BD17B689C6C7B68587807F10E02012349
:1051B000F321A04703461A467B6883F854207B6896
:1051C00093F95430002B02D0FE23FB7305E0BB7B28
:1051D00003F01003DAB27B68DA7097F90F301846E3
:1051E0001437BD4690BD80B487B000AFF8607B60D7
:1051F0000B46FB721346BB720023FB75FB68002B4A
:1052000022D0FB681B78FA7A9A420BD9FB68FA7AAB
:105210001A707B6893F8463043F00103DAB27B687A
:1052200083F84620FB681B78BA7A9A420ED2FB6854
:10523000BA7A1A707B6893F8463043F00203DAB208
:105240007B6883F8462001E0FF23FB7597F9173050
:1052500018461C37BD4680BC704780B485B000AF8F
:1052600078607B68002B0BD07B689B6C002B07D091
:105270007B68DB6C002B03D07B681B6D002B02D19D
:10528000FF23FB7301E00023FB7397F90F301846EF
:105290001437BD4680BC704770B5002410260368E3
:1052A00084B01546029612689E6900946B468DF88C
:1052B00004400394B0479DF8043003F00603062B26
:1052C00009BF01202046009B2B6004B070BD00BFC9
:1052D000009890420CBF06200120704710B504468C
:1052E000024B036000F000F9204610BDC84E0100DB
:1052F00010B50446044B036000F0F6F82046082180
:1053000000F0E4F8204610BDC84E010038B515463F
:105310001C4600F0EDF820B1082206232560E2606B
:10532000237138BD2DE9F04117461C4606460D464F
:1053300000F0DEF808B9032C01D9BDE8F0812B6834
:105340003A4631462846BDE8F0415B69184700BF40
:10535000F0B583B0089D0A9917468D4206460B9C0E
:105360000BD01946304600F0C3F818B10123256070
:105370002771A371002003B0F0BD0999019300F0DB
:10538000B7F818B10020677103B0F0BD019BE8E7E2
:105390000B460146184609F0D9B800BF10B50446BF
:1053A000024B0360FFF79AFF204610BD284F010013
:1053B00010B50446044B0360FFF790FF20460C2114
:1053C00000F084F8204610BD284F010070B582B06F
:1053D000069C0D469442064609D0B06829460668E8
:1053E0000694346AA44602B0BDE87040604719468E
:1053F0000192009300F07CF8009B019A0028ECD009
:10540000062002B070BD00BF2DE9F04F894681B083
:1054100019461D46164607460A9CDDF82CB0DDF8F5
:1054200030A0DDF8348000F063F888B1B9F1000FE6
:10543000C8F8004088F804601EDB4C44A2450CBF4D
:105440000624012488F80640002001B0BDE8F08F52
:10545000544518D0B8682B460568CDF83480CDF88F
:1054600030A0CDF82CB00A94EC6932464946A446E7
:1054700001B0BDE8F04F604719F1020FE4D10123FC
:1054800088F80630E0E75946384600F031F8002841
:10549000E0D0002088F8056001B0BDE8F08F00BFC3
:1054A0002DE9F04107460C4615461E46FFF72EFF34
:1054B00008B1BDE8F081B868334606682146B46992
:1054C0002A46A446BDE8F041604700BF00F000B89E
:1054D00009F0F6BA08B51B22024902200BF09CFD28
:1054E00000F030F84C4F0100704700BF00207047BB
:1054F000814211D008B5406803782A2B0AD0496848
:105500000B782A2B08BF01310AF0AAF9B0FA80F013
:10551000400908BD002008BD0120704708B580473C
:1055200008F0EEFF00F0B8F908F0EAFF0D46044677
:1055300000F0F2F9013501D000F02CF8204600F01F
:1055400039F900BF08B5034B1868BFF35B8FFFF74D
:10555000E5FF00BFA400002008B58047FFF7F2FF79
:1055600008B5034B1868BFF35B8FFFF7F5FF00BF6B
:10557000A8000020024B1868BFF35B8F704700BF84
:10558000A4000020024B1868BFF35B8F704700BF78
:10559000A80000201EB400F091F81EBC08F0A4FD85
:1055A000F0B5027883B0472A0D461F461ED000236F
:1055B000274C0193236820469B68984780B10226B8
:1055C000019B1B6801932B68214628461C6901AA90
:1055D0000123A04730B13046019B3B6003B0F0BDD2
:1055E0000126F0E70646304603B0F0BD43784E2B67
:1055F000DDD18378552BDAD1C378432B19D0C3780A
:10560000432BD4D10379432BD1D143792B2BCED14A
:1056100083792B2BCBD1C379012BC8D804D050F878
:10562000204C58300190C5E750F8200C50F8784CC9
:10563000F8E70379462BE2D143794F2BDFD1837909
:10564000522BDCD1C379002BD9D10193014CB1E7A6
:105650009C4F0100944F010010B5044600F06AF819
:105660002378A4F12002472B04D0836823BB8260F7
:10567000012010BD63784E2BF7D1A378552BF4D1C0
:10568000E378432BF1D12379432BEED163792B2B94
:10569000EBD1A3792B2BE8D1E379012BE5D854F892
:1056A000043C0133012B44F8043CE1D1836844F805
:1056B000083C8260012010BDFFF744FF08B500F0F0
:1056C00039F8836883B393F82020472A04D0002256
:1056D000826003F1200008BD93F821204E2AF6D104
:1056E00093F82220552AF2D193F82320432AEED1B1
:1056F00093F82420432AEAD193F825202B2AE6D1D7
:1057000093F826202B2AE2D193F82720012ADED80D
:10571000DA69013ADA61002ADBD1002299698160F5
:105720009A6103F1200008BDFFF70CFF00487047A5
:10573000181600200048704718160020704700BF58
:1057400000487047804F010010B504460421FFF760
:10575000BDFE204610BD00BF0378472B01D00020BE
:10576000704743784E2BFAD18378552BF7D1C37805
:10577000432BF4D10379432BF1D143792B2BEED179
:1057800083792B2BEBD1C07901288CBF002001201D
:10579000704700BF10B530B1044600F07DF82046D8
:1057A000FFF7DAFF08B9FFF7CDFE54F8140CFFF746
:1057B000B5FE00BF2DE9F04F85B00246FFF7CCFFE4
:1057C00068B152F8184C104652F8145C966A176B80
:1057D000D2F8349000F060F82046FFF7BDFE104686
:1057E00000F05AF8FFF7BCFE00F056F8FFF7AAFEEB
:1057F00000F052F8FFF79AFF036893F82720012A78
:1058000037D003F178024FF000084C46C1460DF145
:10581000100A203327F0030B01934AF8082DB145F5
:105820001BDA276807B127445346002239460198FE
:10583000FFF7B6FE10BB3B6804AA1B6942F8040DD3
:105840000093384601231149009FB847002818BF2C
:10585000804609F101095C44E1E7B8F1000F0AD084
:10586000042000F0CFFC0A4B0A4A0360074900F00D
:1058700027FD1A68C7E72846FFF750FE00F060FDD5
:1058800000F04AF800F048F8FFF784FEA44F01004A
:10589000285001003D57000038B50446FFF74AFF85
:1058A00022780368472AA4F1200105D0002B31D1CA
:1058B0001C460160204638BD62784E2AF6D1A27897
:1058C000552AF3D1E278432AF0D12279432AEDD147
:1058D00062792B2AEAD1A2792B2AE7D1E279012A2F
:1058E000E4D854F80C2C002A11DB013245688B42B5
:1058F00005F1FF3544F80C2C45601CBF44F8103C02
:1059000001602046646A08F03DF8204638BDC2F1C7
:105910000102EBE7FFF716FE08B5FFF707FF0246A7
:10592000006800283DD090F82030472B06D0002397
:1059300020301360BDE8084008F026B890F8213008
:105940004E2BF4D190F82230552BF0D190F8233023
:10595000432BECD190F82430432BE8D190F825303C
:105960002B2BE4D190F826302B2BE0D190F8273068
:10597000012BDCD84369002B05DB013B08D05A1C06
:105980000DD0436108BD0133FBD101691160F8E717
:10599000036920301360BDE8084007F0F5BFFFF74A
:1059A000D1FD08BD5028F8B554D000F00F040C2CE0
:1059B0004ED8DFE804F007394907174D4D4D4D1F0C
:1059C0001B071700154655F8044B44B100F070064C
:1059D000102E08BF114602060C4448BF24681C6004
:1059E0002846F8BD154655F8084BEEE7154635F93B
:1059F000024BEAE700241546274615F801EB0EF0A6
:105A00007F06BE401EF0800F44EA060407F1070738
:105A1000F3D11F2FD9D81EF0400FD6D04FF0FF364C
:105A200006FA07F73C43D1E700241546274615F848
:105A300001EB0EF07F06BE401EF0800F44EA060424
:105A400007F10707F3D1C0E7154635F8024BBCE76D
:105A500008F056FD033222F0030555F8044B1C6094
:105A60002846F8BDFF280DD000F07000202815D082
:105A70000AD940280FD0502804D0302808D1084631
:105A800008F038BD002070470028FBD01028F9D05E
:105A900008B508F035FD084608F018BD084608F0BE
:105AA00025BD00BFF8B50C4615460746002842D074
:105AB00008F00CFD286026780134FF2E32D03946DC
:105AC0003046FFF7CFFF224601462B1D3046FFF739
:105AD00069FF04462378601CFF2B2B7528D0002417
:105AE000102322462B7510F8011B01F07F03934011
:105AF000090644EA030402F10702F4D40444EC600A
:105B000000242246037801306B7510F8011B01F068
:105B10007F0393401C430B0602F10702F5D40444B3
