:1000000000400020C51B0000C11B0000C11B0000F8
:10001000C11B0000C11B0000C11B0000000000004C
:10002000000000000000000000000000C11B0000F4
:10003000C11B000000000000C11B0000C11B00002C
:1000400029100000C11B0000C11B0000C11B0000E3
:10005000C11B0000C11B0000010C0000D10B0000FF
:10006000A10E0000A5040000AD040000F113000083
:10007000F9130000C11B0000F1180000D5120000A8
:10008000ED120000C11B0000450800003503000010
:100090006913000079130000C11B0000C11B0000A0
:1000A000F912000009130000311300004113000091
:1000B000B51A0000C51A0000C11B0000C11B0000DA
:1000C000C11B0000C11B0000C11B0000C11B0000C0
:1000D000C11B0000C11B0000C11B0000C11B0000B0
:1000E00001140000790B0000E11200002D0B00004C
:1000F000C11B0000C11B0000C11B0000000000006C
:1001000000000000000000000000000000000000EF
:1001100000000000000000000000000000000000DF
:10012000C11B0000C11B0000C11B0000C11B00005F
:10013000C11B0000C11B0000C11B0000C11B00004F
:10018000FFFFFFFFFFFFFFFFFFFFFFFFFFFFFFFF7F
:1001900003329CA77F000000FFFFFFFFFFFFFFFF70
:1001A00010B5054C237833B9044B13B10448AFF3B1
:1001B00000800123237010BD000C0420000000000B
:1001C000BC8A0000084B10B51BB108490848AFF3C2
:1001D00000800848036803B910BD074B002BFBD013
:1001E000BDE81040184700BF00000000040C0420C8
:1001F000BC8A00005809042000000000154B002BA9
:1002000008BF134B9D46A3F5803A00218B460F464D
:100210001348144A121A03F05DFF0F4B002B00D055
:1002200098470E4B002B00D0984700200021040077
:100230000D000D48002802D00C4805F04FFD03F0DA
:10024000EFFB2000290001F0D7FD03F0D9FB00BF30
:100250000000080000400020000000000000000036
:10026000000C04206C160420DD5C0000656C0000AE
:1002700010B50A4C182223460949012000F054FD0C
:1002800000B110BD0521206800F0F0FD0028F8D174
:1002900020680121BDE8104000F0CABD340C0420E4
:1002A0001C0C0420EFF3108072B6104A1378D3B9F7
:1002B0000F4B012170B4117059680E4E0E4C6FF047
:1002C000784241F001014FF4002559609E6025609D
:1002D0001A62DA625A63DA639A64DA641A6580F33E
:1002E000108870BC704780F3108870470014042099
:1002F000000001400010042000E100E030B40C4C8C
:10030000012304EBC0056960AA60834039B1D4F8C9
:10031000DC000343C4F8DC30002030BC7047D4F864
:10032000DC20002022EA0303C4F8DC3030BC704734
:1003300000140420184B2DE9F047184DD3F84C80D9
:100340009C6C1F6DD5F8DC3044EA070919EA0309F3
:100350001AD0B9FA89F30126C3F11F0305EBC301D3
:10036000D1F804A006FA03F3002229EA0309BAF13E
:10037000000F05D01C42886814BF01210221D0471C
:10038000B9FA89F3202BE7D1034B9C641F65C3F8AE
:100390004C80BDE8F08700BF00000140001404203D
:1003A0002DE9F0410F46124E82B0F568002405EBAE
:1003B000C00556F82420092F0CBF138D938DD5F856
:1003C000008099B2138E0B40ADF806301386B8F159
:1003D000000F00D02BB90134032CEAD102B0BDE8E4
:1003E000F0810DF1060221466868C047F3E700BFBF
:1003F000000004200A4AD3680BB10020704730B4D3
:1004000008494FF400754FF48064D0600360436086
:100410008360C3600D6000200C6030BC704700BF7B
:100420000000042000E100E00A4B4FF40072C3F822
:100430008020BFF34F8FBFF36F8F4FF48062C3F8FC
:100440008020BFF34F8FBFF36F8F034B0020D86026
:10045000704700BF00E100E0000004200C4B10B426
:1004600053F82000EFF3108472B683889BB23AB938
:1004700023EA0101818084F31088002010BC7047BA
:100480001943818084F31088002010BC704700BF9E
:1004900000000420024B53F82030002019837047DD
:1004A0000000042009210020FFF77ABF0A21012063
:1004B000FFF776BF674A0023F0B51288046880F81A
:1004C0002A3080F82B30A38803F488639342FAD152
:1004D00083898A885B000D68CF7B9BB202838A7B0D
:1004E00003F0FE064561C6818772002A4DD1476838
:1004F0008E6897F90070B1F80CE0002F03F0FE0150
:1005000002854262C181C661A0F820E008DB07F0E5
:100510001F0E0123504A7F0903FA0EF342F82730D9
:1005200023889BB243F021032380A38803F00303B5
:10053000C3F102039BB25BB925E015F8012B013B27
:10054000A281028B9BB2013A92B245610283D3B180
:10055000028B92B2002AF0D1028C92B29AB1354647
:100560005A1E92B20132324415F8013BA381038C2A
:10057000954203F1FF339BB2C561038403D0038C22
:100580009BB2002BF0D12183F0BD43688D6893F9B5
:1005900000308989002246F0010693420185C68118
:1005A0004562C261028407DB03F01F0501222A496C
:1005B0005B09AA4041F8232023889BB243F0110332
:1005C0002380038D9BB2B3F5807F33D8038D002247
:1005D000013B9BB223820285038B9BB2002B35D05B
:1005E00023889BB243F020032380A38803F00303F6
:1005F000C3F1020292B2BAB1028B92B2A2B1C3F1BC
:10060000010189B242690131114402E0038B9BB2BE
:1006100053B112F8013BA381038B914203F1FF33E5
:100620009BB242610383F1D1C38923F001039BB2E2
:100630002383F0BD4FF480732382038DA3F5807371
:100640009BB20385038B9BB2002BC9D1C389238343
:10065000F0BD00BFE014042000E100E0F0B5446804
:1006600083B094F90030002B0EDB5A090121204C95
:1006700003F01F03203201FA03F344F82230BFF3E2
:100680004F8FBFF36F8F446802681A4993880988B7
:100690009BB2ADF80430BDF804309BB29380B2F841
:1006A0004C3003F0C0038B4209D093899BB2ADF864
:1006B0000630B2F84C3003F0C0038B42F5D1A3688A
:1006C00000211C884FF0010E5F889E88DD88118014
:1006D000A2F850E014801C895B899784A2F85060CE
:1006E000A2F85450A2F858408381084603B0F0BDE8
:1006F00000E100E0E01404202DE9F041154C06462D
:10070000A08C984680B2B0F5217F0C4604D11249E6
:100710000B6843F030030B60104D002705EB061506
:10072000C8F8007039462046EC6003F0D3FC0C4A50
:100730006B6806EB460602EB860665602360E7629F
:100740002046AE60FFF78AFF3846C8F80040BDE893
:10075000F08100BF0020004034000240100004205F
:100760002000042010B50446FFF778FF63680020DE
:10077000D86010BD38B50023037415460446FFF752
:1007800099FE90F82A2052B194F82B302B601BB1BF
:10079000082084F82A0038BD94F82A0038BD104695
:1007A00004F12C0100F050FA08B10D2038BD044BC3
:1007B00021681A888B8803F488639342FAD1E3E7AF
:1007C000E01404200022C262FFF748BF30B583B0B6
:1007D00005460C46002001A900F064F910B1042080
:1007E00003B030BD0F4B9C4206D8019BB3FBF4F421
:1007F0006408A3B2A34202D0012003B030BD0A4A6C
:100800001288002AF8D19BB25A1E92B212F47F408D
:10081000F2D1073B9BB242EA03232A689BB293843E
:10082000DEE700BF801A0600E0140420044A21F02D
:100830007F0312889A4206BF818100200B207047F7
:10084000E01404206F4BF0B4D8680368827A9D8866
:10085000ADB205811AB1C1890022198382726A4C36
:1008600005F004022688B24241D0B3F84C20C2F30E
:100870000112C2F1020292B29AB1018B89B289B11E
:10088000476902E0018B89B261B117F8011B013A97
:100890009981018B92B2013989B247610183002AA3
:1008A000F0D10022018B89B2E1B9018D89B2002912
:1008B00040F0A280B2B1018C89B299B1013A92B2F2
:1008C000C76901323A4402E0018C89B251B117F88C
:1008D000011B9981018CBA4201F1FF3189B2C761D4
:1008E0000184F1D1028C92B20AB904229A8005F0F7
:1008F0000805ADB2AE4226D0B3F84C10C1F3811159
:100900008AB200297BD0456A4FF480771B89013A6F
:10091000DBB22B700368456A998A013589B292B2BD
:10092000456269B9068DB6B256B1068DB6B2B6F556
:10093000807F4DD91F82018DA1F5807189B201851B
:10094000002AE3D12588028902F0B001A94247D0EC
:1009500002F01001A94290F82B1002F080041CBF95
:1009600041F0010180F82B10AC4218BF41F00201A8
:1009700002F0200418BF80F82B10AC4236D041F0B2
:10098000040180F82B1002F48072AA421CD0194690
:100990009A8802F48862AA42FAD1436893F9003037
:1009A000002B0EDB5A090121184C03F01F032032E3
:1009B00001FA03F344F82230BFF34F8FBFF36F8F78
:1009C0000168134B1B880B802C30F0BC00F092B9EF
:1009D000068D013EB6B21E820185002A96D1B1E78E
:1009E00002F480729542D2D1F0BC70470029CAD17E
:1009F000082180F82B10C6E7C2891A8372E73546B2
:100A0000A1E700BF10000420E014042000E100E092
:100A1000200004204CF61432F8B51C4B1C48194633
:100A200002250024DA601D610460DA601A692A4335
:100A30001A610B69154A9B05FBD546F61A064CF65A
:100A40001435144B14491868144F20F00300186033
:100A500000241F201C605F60DE6058610C608C60A9
:100A60004C64D56011690E4B21F004014FF4006015
:100A7000402780264FF4007511611F601E605D6085
:100A8000586001F0BDF82046F8BD00BF00C1044029
:100A9000E414042000C3044000C004400404100017
:100AA00000E100E038B504460D4601F0A9F88CB12C
:100AB000012C0DD10A4B5B6803F03F03094A002B60
:100AC000126808BF0123B2FBF3F300202B6038BD8E
:100AD000042038BD024B5B68C3F30523EEE700BF7B
:100AE00000C304400C150420012810B519D014D3FC
:100AF000022810D109046FF47F03EFF3108272B65D
:100B00000948446823401943416082F3108801F08A
:100B100077F8002010BD042010BD09026FF47C534B
:100B2000EBE76FF03F03E8E700C3044038B50F4A36
:100B30000F4B14689B6903F0060524B113F00402FF
:100B40000BD19B0702D40A4B9D6138BD094B07218D
:100B50001868A047064B9D6138BD064B00221868F7
:100B60000821A047024B9D6138BD00BFE41404205A
:100B700000C30440EC14042038B5124A124B156827
:100B80009B6903F4CC445DB14CB158040DD4990475
:100B900013D49A0513D45B0504D5062106E038BDAD
:100BA000002CFCD0084B9C6138BD0421074B00226F
:100BB0001868A847044B9C6138BD0321F6E705215E
:100BC000F4E700BFE414042000C30440EC14042044
:100BD00008B5084B5968CB070BD5074B1B681BB1F1
:100BE000064A106800229847024A536843F00103FE
:100BF000536008BD00C00440E4140420EC14042039
:100C000038B50E4D0E4A2B6854684BB162070ED4AE
:100C1000A30705D50B4A2B681068012100229847CD
:100C2000074A04F0060453681C43546038BD054964
:100C30000022086811469847EAE700BFE414042040
:100C400000C00440EC140420274B0029F0B506BF77
:100C5000194602270027032844D8DFE800F040396E
:100C60003B024FF0FF340627EFF3108372B644F6D1
:100C700059061E4DDFF878E0EE60AE6826F00306F8
:100C80003043A860DEF8100038430440CEF810402E
:100C9000EFF31180520182F311880A6852B9BFF351
:100CA0004F8F30BF83F31088EFF3108372B60A685A
:100CB000002AF4D00A68013A0A6080F311880C49CE
:100CC0000A6922F002020A61BFF34F8F83F3108892
:100CD0000020F0BD47F004074FF0FF34C4E76FF089
:100CE0000604C1E70620F0BDE814042000C004405B
:100CF00000ED00E0034620B11A68002001321A60BE
:100D00007047EFF3108372B605490A6922F00202B8
:100D10000A61BFF34F8F83F31088024BECE700BFEB
:100D200000ED00E0E81404202DE9F0410D460446F2
:100D30000021196028461E46670003F0CBF93848A9
:100D40003B1950F8231029600A8902F0800292B200
:100D5000002AF9D10A800A858B881A06FCD50B89EE
:100D6000DB05FCD441F6FF738B808A88D205FCD565
:100D700000238B810B828A889305FCD5391900EBFF
:100D80008101DFF8A8E004EBC4038D609B000EEB4B
:100D900003023EF803E02B68B2F80280B2F804C008
:100DA0006961A3F800E01189B2F806E0A3F8288091
:100DB000A3F80CC0B2F80AC0A3F810E0B2F80CE037
:100DC00099821849A3F818C08B42A3F844E013D0C5
:100DD0003C4400EB840494F904303560002B2B7301
:100DE00007DB03F01F0001220F495B09824041F835
:100DF00023200020BDE8F081118AA3F84C10518A0D
:100E0000A3F850102B68B2F814E0D18AA3F854E08C
:100E10002B68128BA3F858102B68A3F87020D7E723
:100E20002C0004200014004000E100E044000420F5
:100E3000026813891B06FCD4EFF3108272B669B105
:100E400001680B889BB243F001030B8082F310888A
:100E5000026893881B06FCD50020704701680B8848
:100E600023F001031B041B0C0B80EFE70268938D3A
:100E7000DB04FCD430B4EFF3108472B605682A8D1D
:100E800022F4F0731B041B0C43EA41132B8584F3FB
:100E900010880268938D5B04FCD5002030BC70473D
:100EA000604B2DE9F0419F683B6818889A8892B2A0
:100EB00012F07E064BD080B220F4FF6121F00301D6
:100EC00089B200296DD1188D9A8D80B292B212F03C
:100ED0001F0502D0C40640F08580B3F85000B3F877
:100EE000482080B292B2C2F30C046CB341F6FE7E8D
:100EF00000EA0E0EBEF1000F05D0800503D5900567
:100F000001D541F40061B3F8500080B220F43E6E88
:100F10002EF0030EBEF1000F1BD1D7F80480B8F1FC
:100F2000000F01D0002937D19A8892B232439A80BB
:100F30009A8D92B22A439A85B3F8482092B22243FE
:100F4000A3F84820BDE8F081B3F85020E5E731462A
:100F5000B9E710F4804F04D012F0100F18BF41F41D
:100F6000802110F4005F04D012F0080F18BF41F484
:100F7000003110F4805F04D012F0040F18BF41F468
:100F800080314005C9D5D207C7D5D7F8048041F4D0
:100F90000041B8F1000FC7D00022B868C0473B68D5
:100FA000C2E700F0040189B209B1C2F34001C504EF
:100FB00003D5140748BF41F00401050403D55406C6
:100FC00048BF41F02001450403D5940648BF41F0D5
:100FD000100180047FF577AFD5067FF574AF41F03F
:100FE000080170E7C40603D5D40648BF41F4806108
:100FF000040703D5140748BF41F40071440703D523
:10100000540748BF41F48071840703D5940748BF53
:1010100041F08001C0077FF560AFD40748BF41F0C1
:1010200040015AE72C000420604B2DE9F0415F6934
:101030003B6818889A8892B212F07E064BD080B234
:1010400020F4FF6121F0030189B200296DD1188DD0
:101050009A8D80B292B212F01F0502D0C40640F001
:101060008580B3F85000B3F8482080B292B2C2F342
:101070000C046CB341F6FE7E00EA0E0EBEF1000FCA
:1010800005D0800503D5900501D541F40061B3F882
:101090004C0080B220F43E6E2EF0030EBEF1000F25
:1010A0001BD1D7F80480B8F1000F01D0002937D147
:1010B0009A8892B232439A809A8D92B22A439A8544
:1010C000B3F8482092B22243A3F84820BDE8F0814B
:1010D000B3F84C20E5E73146B9E710F4804F04D06F
:1010E00012F0100F18BF41F4802110F4005F04D0FB
:1010F00012F0080F18BF41F4003110F4805F04D0E3
:1011000012F0040F18BF41F480314005C9D5D20751
:10111000C7D5D7F8048041F40041B8F1000FC7D01B
:101120000022B868C0473B68C2E700F0040189B2FA
:1011300009B1C2F34001C50403D5140748BF41F00B
:101140000401050403D5540648BF41F020014504BD
:1011500003D5940648BF41F0100180047FF577AFB6
:10116000D5067FF574AF41F0080170E7C40603D5DA
:10117000D40648BF41F48061040703D5140748BF73
:1011800041F40071440703D5540748BF41F480710E
:10119000840703D5940748BF41F08001C0077FF55D
:1011A00060AFD40748BF41F040015AE72C0004204B
:1011B000F0B5016883B00B8C9BB2ADF806300C889B
:1011C000A4B2260638D5036943F002030361C3695C
:1011D00063BB0B8A9A0726D48B8A426823F4185380
:1011E00092F90C201B041B0C0125002A8B8280F82D
:1011F00022500CDB5309364902F01F02203305FA56
:1012000002F241F82320BFF34F8FBFF36F8F836843
:101210000546002B55D001690022C068984729680F
:101220000C8003B0F0BD0B889B07D5D40369002B5D
:10123000D2D10C8003B0F0BDE5063DD4BDF8062048
:10124000BDF8065002F00F02C2F1080292B2C5F3D7
:1012500003258AB1838BABB1466900E093B137783F
:10126000013B0F8190F82070013A9BB23E4492B24C
:1012700083834661002AF1D190F8243013B1838B27
:10128000002BA4D1002DA2D0C38B002B9FD082694C
:1012900001E0002B9BD08B88013D1370C38B8169CB
:1012A00090F82120013B0A449BB2ADB2C383826116
:1012B0000168002DEDD18AE7036943F00103036162
:1012C00085E72830FFF716FD29680C8003B0F0BDD4
:1012D00000E100E0014B1869FFF76ABF8C000420B1
:1012E000014B586AFFF764BF8C000420014B986BD8
:1012F000FFF75EBF8C000420024B00221B699A831B
:10130000704700BF8C000420084B00211B691A683D
:10131000D983938B23F007031B041B0C9383938ABD
:101320009BB243F400539382704700BF8C000420AB
:10133000024B00225B6A9A83704700BF8C00042036
:10134000084B00215B6A1A68D983938B23F007034B
:101350001B041B0C9383938A9BB243F40053938228
:10136000704700BF8C000420024B00229B6B9A83C5
:10137000704700BF8C000420084B00219B6B1A684B
:10138000D983938B23F007031B041B0C9383938A4D
:101390009BB243F400539382704700BF8C0004203B
:1013A000F8B5104B104F53F8206057F82030B58B2C
:1013B0006BB1ADB2EA0704460CD4AB0707D50B4AB4
:1013C00057F8243052F824000221002298470323C2
:1013D000B381F8BD0549002251F82000012198474A
:1013E000EBE700BF84850000FC140420F014042007
:1013F0000020FFF7D5BF00BF0120FFF7D1BF00BF1E
:101400000220FFF7CDBF00BF2DE9F0410C46114689
:10141000E36A00261A691E73E262826801290546A2
:1014200093881ED023F020031B041B0C938090F89C
:101430002D3073B1EB681BB194F83420022A1BD015
:1014400004F13C00FFF756FCE16A0B7B3BBBBDE8B7
:10145000F0818268938823F001031B041B0C9380A6
:10146000E8E723F012031B041B0C9380C368DBB175
:1014700094F83420022A17D1206B00270669D0F88F
:1014800000E0AA69AF61076030682663C8B1A2B105
:10149000042128699847E16A0B7B002BD7D0A36B06
:1014A0002846BDE8F0411847AA68938A5B06FCD538
:1014B000138F9BB2002BF8D1C2E772462869984778
:1014C000C2E784F83400002AF7D0E1E70B46416A0E
:1014D000012BCA6A70B5044610691CD0022B0CBFE0
:1014E0004FF480654FF4805503685BB1437B4BB18B
:1014F000A36900262B43A361324606732046FFF7FB
:1015000083FF616AA36920462B43A3610022BDE8E3
:101510007040FFF779BF4FF48075E5E70B46016A2D
:10152000012BCA6A70B5044610691CD0022B0CBF8F
:101530004FF400654FF4005503685BB1437B4BB13A
:10154000A36900262B43A361012206732046FFF7FF
:101550005BFF216AA36920462B43A3610122BDE8FA
:101560007040FFF751BF4FF40075E5E74B7B33B98F
:10157000826893889BB243F002039380704742686D
:1015800070B4147801230F4AA340C2F81438936250
:10159000536253634B680C4D013B0E682D681A0172
:1015A0008068210142F0404233446C1842F001024D
:1015B0006B506060A26083889BB243F0100383800D
:1015C00070BC704700000140808500004B7B33B940
:1015D000826893889BB243F001039380704742680E
:1015E00070B4547801230F4AA340C2F81C389362A8
:1015F000536253634B680C4D013B0E682D681A0112
:101600008068210142F0406233446C1842F00102CC
:1016100068506360A26083889BB243F0200383809C
:1016200070BC7047000001408085000038B5436AF7
:101630000446DB6A1A68F2B1197B51B9C5683DB13D
:10164000002202212069A847636ADB6A1A68AAB1EE
:1016500038BD856899682B88DBB25354416ACA6AE1
:10166000936854680133A3429360F1D1BDE83840D8
:101670000022FFF7C9BEC568002DE1D11B7B002BFE
:10168000E6D1A3681B8838BD70B5164600220C460B
:1016900005463C311046FFF7D7FA68B9226B13694B
:1016A00010601A6823634AB1A86930B1AA6900239F
:1016B00032600D20AB6170BD012070BD84F8342014
:1016C000F2E700BF8368002210B49A80436893F960
:1016D0000320002A0EDB530901211B4C02F01F02DC
:1016E000203301FA02F244F82320BFF34F8FBFF3F7
:1016F0006F8F436893F90220002A0EDB5309012102
:10170000114C02F01F02203301FA02F244F82320A8
:10171000BFF34F8FBFF36F8F436893F90420002A04
:101720000EDB53090121084C02F01F02203301FA9D
:1017300002F244F82320BFF34F8FBFF36F8F43684B
:101740000020D86010BC704700E100E02DE9F84FA0
:10175000144605468B461746DDF828904FF0000AE0
:10176000DFF84C811A4651462046C9F800A02E01E8
:1017700002F0B0FC08EB06039A686360A26007F809
:1017800030BBFEF78FFDBBF1010F66D042496268A6
:1017900004F144031078A166276284F864A0A76569
:1017A0002766E765C4F86CA06765236422463B4959
:1017B000FEF7A4FD002866D1BBF1000F4BD13848DD
:1017C000C5EBC5056D00A368425B28449A81A368F8
:1017D0004288C1881A85A368828846449A84A3688F
:1017E00002899985A36841891A84A368042299878C
:1017F000A3689A80C9F800406168F46091F90420F8
:10180000002A0DDB53099B0003F1604302F01F0225
:10181000012003F5614300FA02F2C3F880211A6047
:1018200091F90230002B07DB03F01F0401221D4851
:101830005B09A24040F8232091F90330002B28DBFC
:1018400003F01F001749012282405B0941F8232061
:101850000020BDE8F88F04F170076168124A4878EB
:1018600067620023BA6307F114023A61BF623F6303
:10187000FF627F6287F83430FB6322460B49FEF734
:101880003DFD00289BD02046FFF71CFF0F20BDE840
:10189000F88F0020BDE8F88F6D1500001D150000C1
:1018A0009085000000E100E0CD150000CD1400009F
:1018B000C8000420F8B50646056A0127AC6A4FF057
:1018C000000CD4F810E085F8347084E80600277323
:1018D0006373C4F808C0069CE96AAB6BC5F828E0DE
:1018E00098472246316A3046BDE8F840FFF7CCBE43
:1018F0006F4B70B5DD6882B0AB681C8904F00E04D4
:101900000C2C1CD8DFE804F0071B221B1D1B3A1B04
:101910001B1B1B1B1D00B3F84460B3F84020B6B27C
:10192000310792B201D0D2074DD4B3F84020002144
:1019300022F007021204120CA3F84020297502B00D
:1019400070BD2846FFF772FE02B070BD2A6AD26AE7
:1019500011680029F3D0107B0028F0D092688A5CCF
:101960001A80296ACA6A9368506801338342936077
:10197000E5D328460122FFF747FDE0E79A8A92B2B5
:10198000D1061AD51B888023560711D5940743F03A
:10199000200301D543F040032A7D002ACFD1A96955
:1019A00004220B43AB61696A2846FFF72DFDC6E7A9
:1019B0009007EFD4002BC2D0EEE712F0080F14BF4F
:1019C00010230023E0E701A90020FFF76BF808B11E
:1019D00000230193AB68F007B3F84810B3F8442034
:1019E00089B292B212D5988C1209060442EA0132E9
:1019F00023D4019BDB00B3FBF2F2AA62EB6813B1C4
:101A000095F82C2072BBAB681A888EE716F0020F8F
:101A100014BF4FF400720022EC68700748BF42F414
:101A20008072310748BF42F4806224B1696A91F83C
:101A30003410022925D0EA61E6E73F2A18D851027E
:101A4000C908A1F50061012601981E85C000B0FB00
:101A5000F2F241F40843A9689BB28B84AB689C8581
:101A6000AA62CBE7AA6A032128699847AB68CBE74B
:101A70007F2A0AD81102C9080124A1F5006126466F
:101A8000E2E705212869A047BDE7FF2A06D8D10172
:101A9000C908A1F5006102240126D5E7C2F30F268B
:101AA000F0009101B1FBF0F10324A1F50061CBE757
:101AB000C8000420024B0122D868016AFFF7A4BCC9
:101AC000C8000420024B0022D868416AFFF79CBC82
:101AD000C800042010B5084A084C136882B00021E1
:101AE00043F4A0031360084600947023044AFFF7F0
:101AF0002DFE02B010BD00BF0000024008150420FA
:101B000060150420F0B5064689B0164A05AB164CA0
:101B100007CA03C3154D216804AC1A700F0C0023CB
:101B20000822ADF80C10286805A900948DF80E70F5
:101B3000FFF7C0FE304602F07FFC2B6802463146BC
:101B4000009418460023FFF7B5FE03A802F074FCCA
:101B50002B680246009403A918460023FFF7AAFE4B
:101B600009B0F0BDAC850000B88500000815042060
:101B700070B5114B84B01B6806461A0CADF80830DE
:101B80008DF80A2002F058FC0C4D03AC2B6802467D
:101B90003146184600940023FFF78CFE02A802F09D
:101BA0004BFC2B680246009402A918460023FFF75D
:101BB00081FE04B070BD00BFB88500000815042088
:101BC000FEE700BF08B50B4A0B4B9A420DD2D0433B
:101BD0000A4918440B4620F003000430084453F827
:101BE000041B834242F8041BF9D100F047F8FEF7CA
:101BF00005FB00BF000004205C090420448C0000A9
:101C000030B4194C236803F00303022B08D0032BD4
:101C100022D030BC154A164B1360164A1360704729
:101C20002368E068E368E268114DC2F3004205FAF8
:101C300002F200F01F0000FB02F1C3F3C323B1FB6B
:101C4000F3F2E3680949C3F3002322FA03F3094AD4
:101C50000B60136030BC7047074B044A1B6830BCF4
:101C60001360044A1360704700C304400C1504203D
:101C700080BA8C01101504201415042044F6590272
:101C80000A4BDA605A6942F003025A61EFF310839B
:101C900072B6074A07484FF4E02190605162BFF3E3
:101CA0006F8FBFF34F8F83F31088704700C00440DD
:101CB00000ED00E00000000000207047704700BF0A
:101CC00008B54069FEF74EFD08B140F0806008BDE0
:101CD00010B5044600F0D4F9204610BD10B500F14F
:101CE0001403044600F1180130220020FEF704FD21
:101CF00010B140F0806010BD6069FEF763FD002800
:101D0000F7D160690249FEF761FD0028F1D1F2E7E1
:101D1000801A0600044A4821938E9BB243F0300398
:101D200093868174FFF7DABF0000024070B5044665
:101D300088B00D464069A17CFEF778FD034618B1D6
:101D400040F0806008B070BD08AE06F8183D6069CC
:101D50000123022401AA04A906950496ADF81430C3
:101D60008DF81E308DF81F30ADF81C40FEF702FDD7
:101D70000028E5D108B070BDFFF7D8BF30B583B0FB
:101D80000D46022201A9FFF7D1FF044668B99DF86C
:101D900005309DF8040043EA0020C00800F012FD61
:101DA0004FF0765100F062FD2860204603B030BD50
:101DB00030B583B00D46022201A9FFF7B7FF0446F4
:101DC000A0B99DF805309DF8040043EA0020C00842
:101DD00000F0F8FC4FF0765100F048FD054900F0A6
:101DE00045FD4FF0844100F039FC2860204603B0E7
:101DF00030BD00BF6666E63FF0B58749874B97B0B8
:101E0000002204911A8000F02BF9FEF703FE00284F
:101E100055D101210846FEF767FE0446002840F030
:101E2000EF800121FEF760FE0446002840F0DC80D0
:101E3000FFF750FE10217A48FEF7DCFA044600282E
:101E400040F0C680012210464FF48051FEF706FB99
:101E50000446002840F0B0804FF480510120FEF786
:101E600019FB0446002840F09B80FEF7DDFA04468B
:101E7000002840F089806B4E6B4D06F130073446E8
:101E80000FCCBC4228606960AA60EB6006F11006C6
:101E900005F11005F3D16448FFF76AFEFEF7E8F993
:101EA00004A8FFF737FF00B320F07F43020E5F491D
:101EB0005D4802F0BDF95C48FFF75AFEFEE70446B4
:101EC0008D235B4A5B49584802F0B2F95648FFF748
:101ED00019FE2346584A5949534802F0A9F9524875
:101EE000FFF746FE002001F08BFD04A8FFF7E4FE9B
:101EF000044604A8FFF7E0FE50B124F07F43220E11
:101F00004A49494802F094F94748FFF731FEFEE795
:101F100001A904A8FFF732FFB8B102A904A8FFF78E
:101F200047FF20B340F6FE7200230393039B9342C6
:101F3000EED8039B01330393039B9342F9D901A984
:101F400004A8FFF71BFF0028E7D1019800F02CFB45
:101F500002460B4634483A4902F06AF93248FFF724
:101F600007FE02A904A8FFF723FF0028DAD1029890
:101F700000F01AFB02460B462B48324902F058F992
:101F80002948FFF7F5FDCDE7A123294A294926482D
:101F900002F04EF92448FFF7B5FD23462A4A9AE796
:101FA0009F23234A2349204802F042F91E48FFF7A5
:101FB000A9FD2346254A8EE79D231D4A1D491A483F
:101FC00002F036F91848FFF79DFD2346204A82E7C4
:101FD0009B23174A1749144802F02AF91248FFF7C1
:101FE00091FD23461B4A76E79323114A11490E4877
:101FF00002F01EF90C48FFF785FD2346164A6AE7F2
:1020000090230B4A0B49084802F012F90648FFF7E3
:1020100079FD2346114A5EE728860000082C00401F
:1020200018150420C0870000D0150420F087000098
:102030006C860000D4860000DC8600000487000067
:10204000188800003C880000B08700009C870000D2
:102050008487000074870000488700002487000000
:1020600004490548054B4FF4A872086000201A6027
:10207000704700BF000002400005500040000240D1
:1020800001F0FEBC10B50446024B036000F0CEF830
:10209000204610BD6888000010B50446044B03605C
:1020A00000F0C4F82046FFF7EBFF204610BD00BF4C
:1020B000688800002DE9F04F894681B019461D4619
:1020C000164607460A9CDDF82CB0DDF830A0DDF896
:1020D000348000F073F888B1B9F1000FC8F80040FF
:1020E00088F804601EDB4C44A2450CBF0624012482
:1020F00088F80640002001B0BDE8F08F544518D0A4
:10210000B8682B460568CDF83480CDF830A0CDF8FE
:102110002CB00A94EC6932464946A44601B0BDE8A9
:10212000F04F604719F1020FE4D1012388F806301F
:10213000E0E75946384600F041F80028E0D000209A
:1021400088F8056001B0BDE8F08F00BF70B582B0BF
:10215000069C0D469442064609D0B068294606689A
:102160000694346AA44602B0BDE870406047194640
:102170000192009300F022F8009B019A0028ECD015
:10218000062002B070BD00BF2DE9F04107460C46A5
:1021900015461E4600F062F808B1BDE8F081B86847
:1021A000334606682146B4692A46A446BDE8F04194
:1021B000604700BF704700BF00207047814211D0C8
:1021C00008B5406803782A2B0AD049680B782A2B77
:1021D00008BF013102F052F8B0FA80F0400908BDA2
:1021E000002008BD0120704770B5066884B0002447
:1021F00010231546029312686B46B66900948DF859
:1022000004400394B0479DF8043003F00603062B06
:1022100011BF2046009B01202B6004B070BD00BFA1
:10222000009890420CBF06200120704710B504466C
:10223000024B0360FFF7BEFF204610BDE0880000A0
:1022400010B50446044B0360FFF7B4FF2046FFF7C8
:1022500017FF204610BD00BFE088000038B51546C6
:102260001C46FFF7ABFF20B1082206232560E26081
:10227000237138BDF0B583B0089D0A9917468D4289
:1022800006460B9C0BD019463046FFF797FF18B156
:10229000012325602771A371002003B0F0BD0999C7
:1022A0000193FFF78BFF18B10020677103B0F0BDF9
:1022B000019BE8E72DE9F04117461C4606460D460E
:1022C000FFF77CFF08B9032C01D9BDE8F0812B682A
:1022D0003A4631462846BDE8F0415B69184700BFE1
:1022E00081F0004102E000BF83F0004330B54FEAC7
:1022F00041044FEA430594EA050F08BF90EA020F34
:102300001FBF54EA000C55EA020C7FEA645C7FEAC6
:10231000655C00F0E2804FEA5454D4EB5555B8BFE9
:102320006D420CDD2C4480EA020281EA030382EA5A
:10233000000083EA010180EA020281EA0303362DEC
:1023400088BF30BD11F0004F4FEA01314FF4801CBF
:102350004CEA113102D0404261EB410113F0004FD1
:102360004FEA03334CEA133302D0524263EB430388
:1023700094EA050F00F0A780A4F10104D5F1200E26
:102380000DDB02FA0EFC22FA05F2801841F1000181
:1023900003FA0EF2801843FA05F359410EE0A5F155
:1023A00020050EF1200E012A03FA0EFC28BF4CF086
:1023B000020C43FA05F3C01851EBE37101F000453C
:1023C00007D54FF0000EDCF1000C7EEB00006EEB49
:1023D0000101B1F5801F1BD3B1F5001F0CD34908D3
:1023E0005FEA30004FEA3C0C04F101044FEA44522A
:1023F00012F5800F80F09A80BCF1004F08BF5FEAB1
:10240000500C50F1000041EB045141EA050130BD90
:102410005FEA4C0C404141EB010111F4801FA4F133
:102420000104E9D191F0000F04BF01460020B1FA88
:1024300081F308BF2033A3F10B03B3F120020CDAC0
:102440000C3208DD02F1140CC2F10C0201FA0CF09E
:1024500021FA02F10CE002F11402D8BFC2F1200C03
:1024600001FA02F120FA0CFCDCBF41EA0C019040B9
:10247000E41AA2BF01EB0451294330BD6FEA040402
:102480001F3C1CDA0C340EDC04F11404C4F12002ED
:1024900020FA04F001FA02F340EA030021FA04F3FF
:1024A00045EA030130BDC4F10C04C4F1200220FA56
:1024B00002F001FA04F340EA0300294630BD21FA94
:1024C00004F0294630BD94F0000F83F4801306BF5A
:1024D00081F480110134013D4EE77FEA645C18BF4E
:1024E0007FEA655C29D094EA050F08BF90EA020FE5
:1024F00005D054EA000C04BF1946104630BD91EADD
:10250000030F1EBF0021002030BD5FEA545C05D1DF
:102510004000494128BF41F0004130BD14F580041E
:102520003CBF01F5801130BD01F0004545F0FE4192
:1025300041F470014FF0000030BD7FEA645C1ABFC7
:10254000194610467FEA655C1CBF0B46024650EAFE
:10255000013406BF52EA033591EA030F41F400212A
:1025600030BD00BF90F0000F04BF0021704730B5B0
:102570004FF4806404F132044FF000054FF0000185
:1025800050E700BF90F0000F04BF0021704730B546
:102590004FF4806404F1320410F0004548BF40421B
:1025A0004FF000013EE700BF42004FEAE2014FEA70
:1025B00031014FEA02701FBF12F07F4393F07F4F4B
:1025C00081F06051704792F0000F14BF93F07F4F7D
:1025D000704730B54FF4607401F0004521F00041C0
:1025E00020E700BF50EA010208BF704730B54FF046
:1025F00000050AE050EA010208BF704730B511F04B
:10260000004502D5404261EB41014FF4806404F182
:1026100032045FEA915C3FF4DCAE4FF003025FEA04
:10262000DC0C18BF03325FEADC0C18BF033202EB8C
:10263000DC02C2F1200300FA03FC20FA02F001FAE6
:1026400003FE40EA0E0021FA02F11444C1E600BF85
:1026500080F0004002E000BF81F0004142001FBF57
:102660005FEA410392EA030F7FEA226C7FEA236C60
:102670006AD04FEA1262D2EB1363C1BFD218414055
:1026800048404140B8BF5B42192B88BF704710F0EB
:10269000004F40F4000020F07F4018BF404211F08E
:1026A000004F41F4000121F07F4118BF494292EAF6
:1026B000030F3FD0A2F1010241FA03FC10EB0C0022
:1026C000C3F1200301FA03F100F0004302D54942AF
:1026D00060EB4000B0F5000F13D3B0F1807F06D35C
:1026E00040084FEA310102F10102FE2A51D2B1F154
:1026F000004F40EBC25008BF20F0010040EA030049
:102700007047490040EB000010F4000FA2F10102F5
:10271000EDD1B0FA80FCACF1080CB2EB0C0200FA7F
:102720000CF0AABF00EBC25052421843BCBFD040CD
:102730001843704792F0000F81F4000106BF80F447
:1027400000000132013BB5E74FEA41037FEA226C0A
:1027500018BF7FEA236C21D092EA030F04D092F0D5
:10276000000F08BF0846704790EA010F1CBF002009
:10277000704712F07F4F04D1400028BF40F0004066
:10278000704712F100723CBF00F50000704700F086
:10279000004343F0FE4040F4000070477FEA2262AD
:1027A00016BF08467FEA23630146420206BF5FEA7E
:1027B000412390EA010F40F4800070474FF000037E
:1027C00004E000BF10F0004348BF40425FEA000C45
:1027D00008BF704743F0964301464FF000001CE0ED
:1027E00050EA010208BF70474FF000030AE000BF43
:1027F00050EA010208BF704711F0004302D5404281
:1028000061EB41015FEA010C02BF844601460020F2
:1028100043F0B64308BFA3F18053A3F50003BCFA0D
:102820008CF2083AA3EBC25310DB01FA02FC6344BA
:1028300000FA02FCC2F12002BCF1004F20FA02F2C1
:1028400043EB020008BF20F00100704702F12002B4
:1028500001FA02FCC2F1200250EA4C0021FA02F215
:1028600043EB020008BF20EADC7070474FF0FF0C1A
:102870001CEAD0521EBF1CEAD15392EA0C0F93EA15
:102880000C0F6FD01A4480EA010C400218BF5FEAB7
:1028900041211ED04FF0006343EA501043EA51112A
:1028A000A0FB01310CF00040B1F5000F3EBF490024
:1028B00041EAD3715B0040EA010062F17F02FD2A28
:1028C0001DD8B3F1004F40EBC25008BF20F001000B
:1028D000704790F0000F0CF0004C08BF49024CEA22
:1028E000502040EA51207F3AC2BFD2F1FF0340EAB4
:1028F000C250704740F400004FF00003013A5DDC25
:1029000012F1190FDCBF00F000407047C2F1000265
:10291000410021FA02F1C2F1200200FA02FC5FEA52
:10292000310040F1000053EA4C0308BF20EADC709C
:10293000704792F0000F00F0004C02BF400010F40E
:10294000000F013AF9D040EA0C0093F0000F01F0BB
:10295000004C02BF490011F4000F013BF9D041EADD
:102960000C018FE70CEAD15392EA0C0F18BF93EADF
:102970000C0F0AD030F0004C18BF31F0004CD8D109
:1029800080EA010000F00040704790F0000F17BF90
:1029900090F0004F084691F0000F91F0004F14D0D6
:1029A00092EA0C0F01D142020FD193EA0C0F03D12E
:1029B0004B0218BF084608D180EA010000F0004031
:1029C00040F0FE4040F40000704740F0FE4040F40C
:1029D000400070474FF0FF0C1CEAD0521EBF1CEAAB
:1029E000D15392EA0C0F93EA0C0F69D0A2EB0302C9
:1029F00080EA010C49024FEA402037D04FF0805363
:102A000043EA111143EA10130CF000408B4238BF27
:102A10005B0042F17D024FF4000C8B4224BF5B1A35
:102A200040EA0C00B3EB510F24BFA3EB510340EA83
:102A30005C00B3EB910F24BFA3EB910340EA9C0031
:102A4000B3EBD10F24BFA3EBD10340EADC001B01A1
:102A500018BF5FEA1C1CE0D1FD2A3FF650AF8B4245
:102A600040EBC25008BF20F0010070470CF0004C52
:102A70004CEA50207F32C2BFD2F1FF0340EAC2507D
:102A8000704740F400004FF00003013A37E792F03E
:102A9000000F00F0004C02BF400010F4000F013A9C
:102AA000F9D040EA0C0093F0000F01F0004C02BF97
:102AB000490011F4000F013BF9D041EA0C0195E700
:102AC0000CEAD15392EA0C0F08D142027FF47DAF99
:102AD00093EA0C0F7FF470AF084676E793EA0C0F89
:102AE00004D14B023FF44CAF08466EE730F0004C87
:102AF00018BF31F0004CCAD130F000427FF45CAF17
:102B000031F000437FF43CAF5FE700BF03685A0039
:102B10004CBF43F0004323F000431844704700BF0C
:102B200061B32DE9F84F01F1FF3A90460646D146D0
:102B3000002707EB090404EBD4746410E500711955
:102B40000846FFF7E3FFA245834605F1080030443D
:102B500009D0FFF7DBFFC34500F1FF3005D8404542
:102B600009D2671CE5E7C34505D9A74202D004F1A5
:102B7000FF39DEE700210846BDE8F88F08467047B8
:102B8000012807D0022807D0044B00280CBF1846A4
:102B90000020704702487047024870479532000095
:102BA000993200009D32000030B5254B83B00446B9
:102BB0008D1E7BB301A92846AFF3008020B3019995
:102BC0002A46FFF7ADFF0146F0B1FFF79FFF4B68C4
:102BD000A064012B12D0002B01F1040021DBFFF7D0
:102BE00095FF0023E06423650368002B1DDBFFF7DE
:102BF0008DFF00232061184603B030BD0023236100
:102C00000523184603B030BD00232361092318466D
:102C100003B030BD0B490C4B0846591AC91001913D
:102C2000CEE70123E0642365DEE7C3F30360FFF72B
:102C3000A7FF0028206114BF00230923DBE700BFA2
:102C400000000000E48A0000448C0000036810B516
:102C5000DA07044606D49B0700F1480009D500F0C6
:102C60005BFC2368590709D51A070ED5DB0613D577
:102C700010BD00F049FC23685907F5D404F1D000D9
:102C800000F052FC23681A07F0D404F5A87000F095
:102C900053FC2368DB06EBD404F5E870BDE8104074
:102CA00000F08EBC03680BB118447047184670479B
:102CB00009207047704700BF70B504460D4608E014
:102CC0002A6C2369626121462A4601209847082818
:102CD00008D1296C2046FFF767FF06460028EFD091
:102CE00000F086FE0728FBD13046296CFFF7E2FF93
:102CF000281D00F0FDFB00BF2DE9F0470646ADF5AD
:102D0000727D03AD0C1D17460FCC0FC50FCC0FC540
:102D10000FCC0FC594E80F0002ACD6F80C80D6F8A3
:102D2000189085E80F0000233046216C2360FFF7E0
:102D30003BFF0546002F14BF0A2709277DB1A36B6F
:102D400047F010018DE810023246636401203346DB
:102D5000C04778BB28460DF5727DBDE8F087236C2F
:102D60004FF4F072736121467AA801F03DF933699E
:102D70007AAA314638469847889B82468DE81002E9
:102D800039466364324633460120C04790B94FF458
:102D9000F0727AA9204601F027F9BAF1080F06D19E
:102DA000216C3046FFF700FF09270546C6E7BAF158
:102DB000070F04D009200DF5727DBDE8F087284685
:102DC000216CFFF777FF03A800F092FB406C70477F
:102DD000F0B5CB6BF9B00B640E1D01AD0F46044688
:102DE0000FCE0FC50FCE0FC50FCE0FC596E80F0043
:102DF0004FF0FF3685E80F00009606E023696A462B
:102E0000214698470828054608D110992046FFF723
:102E1000CBFE0028F2D0092079B0F0BD6846FFF75C
:102E200015FF062DF7D139462046FFF745FF00BFB5
:102E300030B4DD6BC160826119461D64002230BC74
:102E40005AE700BF70B54369C6680B6426B101221A
:102E5000FFF752FF00F0CCFD03690A4604460D4619
:102E6000014602209847072807D0082803D12946A1
:102E70002046FFF721FF00F0BBFD3046296CFFF72D
:102E800019FF281D00F034FBC2682AB110B4CC6BC6
:102E900000220C6410BC2FE79AE700BF704700BF08
:102EA000836813B1014601201847704700B5042913
:102EB00007D8DFE801F00309060909000BB90F2A5A
:102EC00005D902205DF804FB01205DF804FB00EB4E
:102ED000820252681846019B1A605DF804FB00BF2D
:102EE00010B584B0002303AC0A4600941946FFF7DE
:102EF000DDFF039804B010BD00B5042907D8DFE852
:102F000001F00309060909000BB90F2A05D90220AF
:102F10005DF804FB01205DF804FB019900EB8202DF
:102F20000968184651605DF804FB00BF10B584B015
:102F300004AC44F8042D00230A4600941946FFF718
:102F4000DBFF04B010BD00BFF0B5D36BADF50F7D56
:102F50001364151D17AC07460E460FCD0FC40FCDD9
:102F60000FC40FCD0FC495E80F004FF0FF3584E874
:102F70000F00169511E016A86A46FFF7D7FF3146F5
:102F800016A8B84780B9049B16AA69460820984736
:102F90000528044609D0092806D026996846FFF777
:102FA00003FE0C210028E6D0092416A8FFF74EFEE8
:102FB00020460DF50F7DF0BD2DE9F04FCC6C91460C
:102FC00022688BB004340D460792089400F0030B7E
:102FD0001E46002B64D11202032307928DF8256050
:102FE0008DF824302B6DBBF1020F08BFAC6B13F0D2
:102FF000010343D100F00800C2B203920193276895
:10300000002F3DD0022E47D02788B4F80280043428
:10301000AB6C28F0010A0F2148469A44FFF760FF85
:10302000824537D827F001039A4450452CBF002031
:1030300001204FEA480808F0020807F0010748EAB3
:103040000708B8F1010F41D038D3B8F1020F1DD1F4
:10305000236823F000420292BBF1000F79D130B116
:103060000399002900F08180002A00F0A880002B3D
:1030700079DB029B013304EB8304C0E70023019357
:10308000022E40DDFFF714FE002842D009200BB0CD
:10309000BDE8F08F0020CCE7D4F804800834B7E70F
:1030A000022B9FDC130CD9B212048DF825300223B9
:1030B00004EB810407928DF8243093E7BBF1000FF5
:1030C00002D0002840F0B080043498E7BBF1000F34
:1030D00026D1B0B194E80C00991C4FEAD272D5D039
:1030E00005F158010133069100F09480201DFFF78F
:1030F000D9FD06AB01462846AFF30080002840F01A
:10310000B88008347BE707A9484600F0F3FA0028A6
:10311000BCD1019B002B5CD108200BB0BDE8F08F27
:103120000D2148462F6AFFF7DBFE8742E9D1AB6AE3
:103130009C42E6D12046FFF7E9FC0F2102464846B3
:10314000FFF7F4FE48462A460021FFF7EFFE07206E
:103150009DE70D2148462F6AFFF7C2FE874248D0FF
:103160002368002B85DA043483E7029B3BB305F127
:103170005803271DCDF810B0DDF80C80A346DDF80C
:1031800008A01C46059602E0B245B04616D0384667
:103190000694FFF787FD06AB014600222846AFF3F1
:1031A000008008F1010604370028EDD0029B5C4640
:1031B0004345DDF810B0059ED2D100E05C4648469C
:1031C0000D21FFF78DFE069B2862AC626B62062024
:1031D0005DE70F214846FFF783FE0E210246484671
:1031E000FFF7A4FE48462A4A0F21FFF79FFE07205B
:1031F0004DE7AB6A9C42B3D1042202990027A31881
:10320000A962EF622A636B632368BB421FDB012361
:1032100001932EE748460D21FFF762FE2862069BC8
:103220006B62AC62062032E72046FFF76FFC043485
:103230000646AC632846AFF3008000283FF426AF73
:10324000484632460F21FFF771FE07201FE7084668
:10325000013004EB8000FFF759FC0F21024648467D
:10326000FFF764FE48462A463946FFF75FFE07200F
:103270000DE707460D214846FFF732FE022F286270
:10328000CDD12B46069A43F82C2F6B62C9E700BFBD
:103290000000000000238FE601238DE602238BE669
:1032A000F0B50446C5B004290DD8DFE801F0570396
:1032B0000C310F00012B4FEA124695B266D17219FC
:1032C000102A40F29F80022045B0F0BD002BFAD1B9
:1032D000102AF8D82368D80600F1C98022AE3046FB
:1032E000019200F077F9A06B019A0023012505FAFD
:1032F00003F1114203D00168043046F82310013372
:10330000042BF4D1A063304600F05AF90020DBE72B
:10331000032BD8D1150C97B2EB19102BD3D82368F7
:103320001E0700F1B88022AE30467F0000F026F97B
:1033300006EBC5027B1EA56B57B12946043A51F82E
:10334000040B013B42F8040F581CF8D105EB87052C
:103350003046A56300F0F0F80020B5E7002BB2D1AD
:10336000A56B97B2201D012606FA03F1394203F13D
:10337000010302D0296804350160102B00F104001C
:10338000F2D112F400503BD1A5639DE7052B9AD1F1
:103390007719202F97D80F2E65D92F46002D48D1A9
:1033A0002A460027002AA06B71DD00EBC20201460D
:1033B00044A800EBC6008C3851F8045B914240F8F9
:1033C000045FF9D1084697B13246102E44A938BFA0
:1033D000102201EBC202A2F5C4727900043A00EB9C
:1033E000810150F8045B814242F8045FF9D1012B5E
:1033F00047D00F2EA16332D917B102A800F094F87C
:10340000002061E70F2E3FF65EAF00272268D1074C
:103410000DD522F00101052B21600193204652D0E9
:1034200022F0030240F8482B00F072F8019B002FB5
:1034300051D02268510736D4012B3ED00F2E06D82A
:1034400022A8019300F06CF8019B002FA8D002A8DD
:10345000019300F06DF8019BC6F11002A2E722A8CB
:1034600000F05AF8C8E7102FCFD9103FCEE723F06D
:103470001003236004F5E870019200F0ABF8019AA4
:103480002CE70431A16322A800F03EF8B8E7002F32
:103490009AD10146ABE723F00803236004F5A87036
:1034A00000F06CF83FE7204622F0040240F8D02BF1
:1034B000019300F03DF8019BBEE722A8019300F0C4
:1034C00027F8019BC8E741F0020140F8481B00F0D3
:1034D00027F8019BABE7012B03D00F2E3FF660AF1F
:1034E000AEE722A8019300F013F8019B58E700BF54
:1034F00000F1340191E838009C46A6464CF8045D82
:1035000090E8FF0FE54600BD90EC210B704700BF2F
:1035100080EC210B704700BF90EC200B704700BF80
:1035200080EC200B704700BFD0EC200B704700BF31
:10353000C0EC200B704700BFF0EC0201F0EC021170
:10354000F0EC0221F0EC0231F0EC0241F0EC02511F
:10355000F0EC0261F0EC0271F0EC0281F0EC02910F
:10356000F0EC02A1F0EC02B1F0EC02C1F0EC02D1FF
:10357000F0EC02E1F0EC02F1704700BFE0EC020178
:10358000E0EC0211E0EC0221E0EC0231E0EC02415F
:10359000E0EC0251E0EC0261E0EC0271E0EC02814F
:1035A000E0EC0291E0EC02A1E0EC02B1E0EC02C13F
:1035B000E0EC02D1E0EC02E1E0EC02F1704700BF88
:1035C000B0FC0181B0FC0191B0FC01A1B0FC01B1E3
:1035D000704700BFA0FC0181A0FC0191A0FC01A1EB
:1035E000A0FC01B1704700BFEC4600B52DE90050CA
:1035F0002DE9FF1F4FF000032DE90C0001A9FFF793
:10360000E7FBDDF840E012B0704700BFEC4600B5C4
:103610002DE900502DE9FF1F4FF000032DE90C00AC
:1036200001A9FFF70FFCDDF840E012B0704700BFC2
:10363000EC4600B52DE900502DE9FF1F4FF00003C7
:103640002DE90C0001A9FFF71FFCDDF840E012B0E6
:10365000704700BFEC4600B52DE900502DE9FF1F73
:103660004FF000032DE90C0001ABFFF7E1FBDDF8A3
:1036700040E012B0704700BFEC4600B52DE90050A5
:103680002DE9FF1F4FF000032DE90C0001AAFFF701
:103690005BFCDDF840E012B0704700BF037A1BB955
:1036A000437A43B9B02070475A1E036802721A0267
:1036B0000260180E70474268013B10B443721368F1
:1036C0000321141D01721A024460026010BC180E1E
:1036D000704700BF00B585B003AA002300921946C9
:1036E0000C22FFF7E3FB039805B05DF804FB00BF75
:1036F000F0E700BF2DE9F04306460D4685B04FF0D8
:1037000000082846FFF7CAFFB028044600F0B4803E
:1037100020F07F0313F0FF0320D000F0F003802B94
:103720007AD0902B35D0A02B48D0B02B5CD0C02BBA
:1037300000F0898000F0F803D02B0BD100F00702D5
:10374000013242F40022052301213046FFF7A8FD93
:103750000028D6D0092005B0BDE8F0830DF10C0992
:1037600019468700CDF800900D223046FFF79EFBEA
:10377000FFB2039B043760064CBFDF1BFF1800231A
:10378000CDF8009019460D2230460397FFF7B4FBA1
:10379000B7E700F00D030D2BDCD003AF002300F0E2
:1037A0000F02194600973046FFF780FB0023009771
:1037B00019460D223046FFF79FFBA2E7C2434FF4A4
:1037C0007F6302F0070243FA02F2010702EA0302F2
:1037D0004FF0000348BF42F4804219463046FFF7DD
:1037E0005FFD0028B6D18CE7B1284AD0B22853D06B
:1037F000B32800F0818000F0FC03B42BAAD000F0C5
:1038000007020132012342F4002219463046FFF735
:1038100047FD00289ED174E72846FFF73FFF2402AA
:103820002043B0F5004F95D004010023A2B2194601
:103830003046FFF735FD00288CD114F4004F18BF37
:103840004FF001085DE7C62862D0C7286CD000F0B1
:10385000F803C02B7BD0C82800F09180C9287FF4E2
:1038600079AF2846FFF71AFF020300F00F0002F4B9
:1038700070220130024366E7B8F1000F6ED00020DD
:1038800069E72846FFF70AFF024600283FF462AFC7
:1038900010F0F003B9D05DE700230DF10C090D2203
:1038A0001946CDF800903046FFF700FB2846FFF799
:1038B000F5FE02064FF002040CD5039B00F07F00DA
:1038C000A040034428460393FFF7E8FE030604F1F3
:1038D0000704F2D4039B00F07F0000FA04F203F522
:1038E000017400231444CDF8009019460D2230468F
:1038F0000394FFF701FB04E72846FFF7CFFE01031F
:1039000000F00F0001F47021421C01230A437CE700
:103910002846FFF7C3FE010300F00F0001F47021F9
:10392000421C03230A4370E72846FFF7B7FE02460E
:1039300000283FF40FAF10F0F0037FF40BAF042129
:103940003046FFF7ADFC00287FF404AFD9E600F065
:103950000F020132032342F4202256E703AC434610
:103960000E22414600943046FFF7A0FA00943046FC
:1039700043460F224146FFF7BFFA4046EBE6284692
:10398000FFF78CFE00F0F00200F00F03103201335D
:1039900043EA0232D7E600BF10B5C36C84B00320FF
:1039A0005A688DF80C00DC7912020833084601A928
:1039B00001928DF80D400293FFF79CFE04B010BDFC
:1039C00008B5FFF795FE806C08BD00BF08B5FFF78E
:1039D0008FFEC36CD87903EB8000083008BD00BFB0
:1039E00008B500F005F800BF08B5FFF7F9FF00BF04
:1039F00008B5062000F0FEFB012004F0B3FD00BF77
:103A000008B50021044602F0FDF8044B1868C36BAA
:103A100003B19847204604F0A5FD00BF3889000097
:103A200070B50F4E0F4D761BB61018BF002405D091
:103A3000013455F8043B9847A642F9D10A4E0B4D84
:103A400004F092FD761BB61018BF002406D0013496
:103A500055F8043B9847A642F9D170BD70BD00BF30
:103A60004C0904204C090420540904204C0904206A
:103A7000024B0146186800F00BB800BF0005042097
:103A8000024B0146186803F04FB900BF000504203F
:103A90002DE9F04F01F10B05162D83B0064640F2DB
:103AA000A08035F0070500F1C080A94200F2BD807A
:103AB00000F05EFBB5F5FC7FC0F090826B0A00F071
:103AC000BB80042B00F27781A80900F1390E4FEA80
:103AD0004E013830BE4F07EB81014C680839A142D6
:103AE00007D1AEE0002A80F2AE80E468A14200F087
:103AF000A880636823F003035A1B0F2AF2DDB44940
:103B00003C6901F1080E744500F0A881636823F058
:103B100003035A1B0F2A00F38E81002AC1F814E018
:103B2000C1F810E080F29380B3F5007F80F05C81F3
:103B3000DB084A684FEAA3094FF0010C013351F842
:103B400033800CFA09F901EBC30C49EA0202ACF12B
:103B5000080CC4F80CC0C4F808804A6041F833402F
:103B6000C8F80C40831001249C4094427CD8144235
:103B700006D120F003006400144200F10400FAD0E2
:103B800007EBC009CC468046DCF80C108C4507D109
:103B900066E1002A80F27481C9688C4500F060817A
:103BA0004B6823F003035A1B0F2AF2DD0C46CB6847
:103BB00054F808CF45F00108C1F804800D4442F0E4
:103BC0000101CCF80C303046C3F808C07D613D617E
:103BD000C5F80CE0C5F808E06960AA5000F0CAFA20
:103BE0001FE0102921D800F0C3FA10250623022077
:103BF000774F07EB83035C68A3F10802944200F05F
:103C000038816368E16823F0030323445A68A56898
:103C100042F00102E96030468D605A6000F0AAFA75
:103C20000834204603B0BDE8F08F002420460C2362
:103C3000336003B0BDE8F08F80214FF0400E3F208D
:103C400048E770465BE723445A68E168DFE72344AE
:103C50005A68304642F001025A60083400F08AFA8D
:103C6000204603B0BDE8F08FBC68636823F003080A
:103C7000A84504D3C5EB08030F2B00F38C80554BEC
:103C8000DFF860911A68D9F800302A44013304EB58
:103C9000080A00F0608102F580520F3222F47F6240
:103CA00022F00F0211463046019200F065FAB0F1A1
:103CB000FF3F8346019A00F05881824500F2FC8064
:103CC000454BDA4519681144196000F05381D9F861
:103CD0000000DFF810E101301BBFCAEB0B0A5144B2
:103CE000CEF800B019601BF0070100F01781C1F198
:103CF0000800C1F58051834408315A44C2F30B02D5
:103D0000C2EB010949463046019300F035FA431CE5
:103D1000019B00F03F81CBEB00024A4442F00102DC
:103D20001968BC424944C7F808B01960CBF80420B0
:103D3000DFF8A49016D0B8F10F0F40F2FD80626852
:103D4000A8F10C0323F0070302F00102E0184FF082
:103D5000050E1A430F2B6260C0F804E0C0F808E0BB
:103D600000F21C811D4BBC681A68914288BF196023
:103D70001B4B1A689142626888BF196022F00302E7
:103D80009542A2EB050301D80F2B04DC304600F06E
:103D9000F1F9002445E745F0010243F00103254411
:103DA00062603046BD6008346B6000F0E3F9204685
:103DB00003B0BDE8F08F142B71D9542B00F2A4800E
:103DC000280B00F16F0E4FEA4E016E3082E600BF05
:103DD0000405042030150420341504202C1504207B
:103DE00028150420100904205A0A042A5ED9142A2E
:103DF00000F2B38002F15C0149005B3207EB810CF9
:103E000057F82110ACF1080C8C45DFF8D88100F090
:103E100088804A6822F00302934202D289688C4566
:103E2000F7D1D1F80CC07A68C4F80CC0A160CCF806
:103E30000840CC6096E645F0010742F001032544B6
:103E4000676030464D610D61C5F80CE0C5F808E0CB
:103E50006B60AA50083400F08DF9E2E64A6881E60A
:103E600008F1010818F0030F0CF1080C7FF48CAE78
:103E700030E0DC68A34208BF02303FF440AEC0E649
:103E80000C460B445A68C96854F8085F42F00102B6
:103E90005A603046E9608D6000F06CF9C1E603F1CC
:103EA0005C0E03F15B004FEA4E0113E69A0902F142
:103EB000390149003832A1E7BC424A4B3FF400AF18
:103EC0009C68626822F003025AE759F8083999455C
:103ED00040F0828010F0030F00F1FF30F5D17B68D5
:103EE00023EA04037B6064009C423FF6BDAE002CD5
:103EF0003FF4BAAE1C4240467FF442AE64001C421E
:103F000000F10400FAD03BE6B3F5AA7F18D8E80B1D
:103F100000F1780E4FEA4E017730DBE54FF4805127
:103F2000EBE60121D8F80430921001FA02F21A43AC
:103F3000C8F80420614677E70123CBF8043025E771
:103F400040F25452934220D8A80C00F17D0E4FEA63
:103F50004E017C30BEE51032A4E6542A26D81A0B56
:103F600002F16F0149006E3248E7BC68626822F0D6
:103F7000030205E7CAF30B0000287FF4A8AE424411
:103F8000BB6842F001025A60ECE6FE214FF07F0E62
:103F90007E209FE501224FF00009C1E604F10801EF
:103FA000304602F0C1FED9F80010DBE6B2F5AA7F78
:103FB00005D8DA0B02F17801490077321EE740F2AA
:103FC00054518A4205D89A0C02F17D0149007C3295
:103FD00014E7FE217E2211E77B6884E7E808431C92
:103FE0005B0005E604050420844641EA000313F063
:103FF000030349D1403A23D30B6803604B68436005
:104000008B688360CB68C3600B6903614B69436154
:104010008B698361CB69C3610B6A03624B6A43623C
:104020008B6A8362CB6AC3620B6B03634B6B436324
:104030008B6B8363CB6BC36340304031403ADBD240
:1040400030320BD30B6803604B6843608B6883602E
:10405000CB68C36010301031103AF3D20C3205D364
:1040600051F8043B40F8043B043AF9D2043208D03A
:10407000D2071CBF11F8013B00F8013B01D30B88AC
:1040800003806046704700BF082A13D38B07B1D066
:1040900010F00303AED0C3F10403D21ADB071CBF38
:1040A00011F8013B00F8013BA4D331F8023B20F8A2
:1040B000023B9FE7043AD9D3013A11F8013B00F8DB
:1040C000013BF9D20B7803704B7843708B78837087
:1040D0006046704770B4840746D0541E002A41D011
:1040E000CDB2034602E0621EE4B3144603F8015B5E
:1040F0009A07F8D1032C2ED9CDB245EA05250F2C0D
:1041000045EA054519D9264603F11002103E0F2E47
:1041100042F8105C42F80C5C42F8085C42F8045C1F
:1041200002F11002F2D8A4F1100222F00F0204F002
:104130000F041032032C13440DD91E462246043AB4
:10414000032A46F8045BFAD8221F22F00302043245
:10415000134404F003042CB1C9B21C4403F8011B3E
:10416000A342FBD170BC704714460346C2E700BFB0
:10417000704700BF704700BF38B5074C00230546A5
:104180000846236004F0E0F9431C00D038BD2368E2
:10419000002BFBD02B6038BD681604201F2938B5D2
:1041A00022D8D0F8DC2205460C469AB152F82130CC
:1041B00083B1012B0CD0591C06D00025204642F8B3
:1041C00024509847284638BD16230360012038BD87
:1041D000002038BD284600F029F82246014628462E
:1041E000BDE8384000F00EB8162303604FF0FF30F2
:1041F00038BD00BF024B01461868FFF7CFBF00BFB4
:104200000005042038B50B46074C054611461846F4
:104210000023236004F090F9431C00D038BD2368CC
:10422000002BFBD02B6038BD6816042004F07CB94D
:104230000EB40146F0B54FF6FF779CB021AC54F8B0
:10424000042B0D4823466FF00045029106914FF470
:10425000027602A900680194ADF81670ADF81460FA
:104260000495079500F016F9029B00221A701CB005
:10427000BDE8F04003B070470005042080EA010C5F
:104280001CF0030F37D110F0030C20F0030021F0D5
:10429000030150F8042B08BF51F8043B0ED08CF0FA
:1042A000030C6FF07F434FEACC0C23FA0CFC51F85F
:1042B000043B42EA0C0243EA0C0300BFA2F1013CBA
:1042C0009A4201BF2CEA020C1CF0803F50F8042BEC
:1042D00051F8043BF2D04FEA02604FEA1222012863
:1042E00028BFB0EB036F08BF1B0AF4D003F0FF0335
:1042F000000EC01A704710F0030F0AD010F8012BFF
:1043000011F8013B012A28BF9A42F4D0A2EB030026
:1043100070474DF8045D50F8042B01F0030521F0BF
:10432000030151F8043B022D26D04DD822F07F45E1
:10433000B5EB132FA2F1013C2CEA020C0DD11CF0BD
:10434000803C08BF51F8043B0AD185EA0205B5EB71
:10435000036F0CD150F8042BE8E74FEA13235BE01E
:104360003CF07F4C54D10B784FEA126554E04FEA91
:10437000126503F0FF034FE04FEA0245A2F1013C52
:104380004FEA15452CEA020CB5EB134F18D11CF07F
:10439000803C08BF51F8043B07D185EA0205B5EB24
:1043A000034F09D150F8042BE6E75FEA0C4C2FD1FC
:1043B0000B884FEA12452FE04FEA03434FEA1245BC
:1043C0004FEA134328E000BF02F0FF05B5EB136F7F
:1043D000A2F1013C2CEA020C0DD11CF0803C08BF7C
:1043E00051F8043B0AD185EA0205B5EB032F0AD147
:1043F00050F8042BE8E74FEA13630DE012F0FF0FCB
:1044000006D051F8043B4FEA122523F07F4303E026
:104410004FF0000020BC704705F0FF0203F0FF00E2
:10442000012828BF904204BF2D0A1B0AF4D0A2EB3A
:10443000000020BC704700BF20F0030110F0030013
:10444000C0F1000051F8043B00F1040C4FEACC0C21
:104450006FF000021CBF22FA0CF213434FF0010C64
:104460004CEA0C2C4CEA0C4CA3EB0C0222EA0302A3
:1044700012EACC1204BF51F8043B0430F4D0C2F16C
:10448000000102EA0102B2FA82F2C2F11F0200EB5D
:10449000D20070472DE9F04FC1B00C460991154686
:1044A0000E930A9002F028FD036818461793FFF751
:1044B000C3FFA38916901E0603D52369002B01F0C4
:1044C0005D8100231A46A8460DF1C009DFF860A4FB
:1044D000129319930B9325932493CDF88C901492F7
:1044E000159298F800304446EBB1252B02D11AE022
:1044F000252B03D014F8013F002BF9D1C8EB04059C
:104500008DB1249B259A01332A44072BC9F80080DA
:10451000C9F804502592249300F3328309F1080965
:104520000B9B2B440B932378002B00F0EA814FF078
:10453000FF3B5D4600231A468DF86F3019460C93F9
:104540000793637804F1010808F10108A3F1200042
:10455000582800F24586DFE810F0F30343064306CF
:10456000FC0343064306430643064306430659003D
:10457000040443066600D0034306EC03BC05BC05F7
:10458000BC05BC05BC05BC05BC05BC05BC0543069B
:1045900043064306430643064306430643064306D3
:1045A0004306E205F7044306F704430643064306C1
:1045B00043064205430643064A05430643064306AF
:1045C00043064306740543064306CD0543064306EA
:1045D0004306430643064306430643064306430693
:1045E0001D060E06F704F704F70415060E0643062B
:1045F0004306A3044306A805AE046D000A0443065F
:104600001204430635044306430670040E9C2368D7
:1046100018460C932346002803F104030E9306DA90
:104620000C9B5B420C93079B43F00403079398F8A1
:10463000003089E7AB460E9A00270798302178238F
:10464000BB4514688DF8701002F104024FF00005AC
:104650008DF871308DF86F7040F00201C0F23D8628
:1046600020F0800141F00201079154EA05010E9209
:104670001193AD4800F0318130AE230943EA057350
:10468000290904F00F020D461C46835C06F8013D23
:1046900054EA0503F1D130AB9B1B0D930D9B5B4599
:1046A000B8BF5B4608930023139317B1089B0133EF
:1046B0000893079B13F002030F9302D0089B023369
:1046C0000893079B13F08403109340F018810C9B10
:1046D000089A9D1A002D40F31281102D2599249AD5
:1046E000924F27DD189648461024B946099E2F465A
:1046F0000A9D04E0103F102F00F1080016DD013282
:104700008A4B1031072A2591249280E81800F1DDA8
:1047100023AA3146284602F04FFF002840F0F880D7
:10472000103F102F30A82599249AE8DC3D464F46CB
:104730008146189E01326C18072A25942492C9F8E4
:104740000070C9F8045000F3D0809DF86F7009F133
:10475000080977B1249B013401330DF16F01012267
:10476000072B2594249389E8060000F3208209F1A1
:1047700008090F9B6BB1249B023401331CA9022250
:10478000072B2594249389E8060000F31C8209F185
:104790000809109B802B00F02C810D9BC3EB0B07AD
:1047A000002F33DD624A102F249B0F9222DD224618
:1047B0004FF0100B0A9D099C04E0103F102F09F1E7
:1047C000080916DD01331032072B2592249389E85E
:1047D000000CF2DD23AA2146284602F0EDFE002857
:1047E00040F09680103F102F0DF1C009259A249BB0
:1047F000E8DC144601330F9A3C44072B259424939C
:1048000089E8840000F3C78109F10809079BDA05EC
:1048100000F19080249B0D9901330C44072B2594C3
:10482000C9F80060C9F80410249300F3E28109F18B
:104830000809079B590736D50C9B089A9D1A002D2D
:1048400031DD102D249B394F22DD22461026DDF864
:1048500028B0099C04E0103D102D09F1080916DD6F
:10486000013332491032072B2592249389E8420004
:10487000F1DD23AA2146584602F09EFE002847D1CA
:10488000103D102D0DF1C009259A249BE8DC14463B
:1048900001332C44072B25942493C9F80070C9F8E0
:1048A000045000F392840B9B0C9A08998A42ACBF87
:1048B0009B185B180B93002C40F059810023249324
:1048C0000DF1C0090DE60027BB458DF86F70C0F2F1
:1048D0000E85079B23F080030793BBF1000F00F0C8
:1048E0006C84002400250027C6E623AA09990A98AB
:1048F00002F062FE60B99DF86F700DF1C009259C51
:1049000027E7259B23B10A9823AA099902F054FEB0
:10491000099B9B8913F0400F0B9B18BF4FF0FF338F
:10492000184641B0BDE8F08F708900003C89000056
:1049300090890000119B652B40F39F801498159976
:104940000022002303F0F0FB002800F06381249B89
:10495000AE49013301340122072B2594249389E8C1
:10496000060000F3538409F108091D9B129A934233
:1049700003DB079BDB077FF55CAF249B16990133B4
:10498000179A0C44072B2594C9F80020C9F8041085
:10499000249300F3E68609F10809129B5D1E002DA1
:1049A0007FF747AF9A4A102D249B0F9240F317814F
:1049B00010260A9FDDF824B005E009F10809103D32
:1049C000102D40F30C8101331034072B25942493D0
:1049D000C9F800A0C9F80460EFDD23AA594638469B
:1049E00002F0EAFD002893D10DF1C009259C249B1B
:1049F000E5E70C9B089A9F1A002F7FF7CEAE844AFA
:104A0000102F249B0F922BDD4A462146B9461025D4
:104A100037460A9C099E06E0A9F11009B9F1100F6A
:104A200002F1080218DD01331031072B2591249380
:104A3000C2F800A05560EFDD23AA3146204602F0FF
:104A4000BBFD00287FF464AFA9F11009B9F1100F84
:104A500030AA2599249BE6DC3E460C464F469146FB
:104A600001330F9A3C44072B2594249389E8840052
:104A700000F32B8509F108098FE6129B249D012B79
:104A800004F1010405F1010540F3E8840123072D39
:104A90002594C9F800602495C9F8043000F3F9841E
:104AA00009F10809169A0135179B1444072D25941E
:104AB0002495C9F80030C9F8042000F3F88409F1FE
:104AC0000809002314981599002203F02DFB129B6E
:104AD000002800F0EA805E1E002E40F3F5804C4B6B
:104AE000102E0F932CDDCDF834801027B046DDF862
:104AF00028B0099E06E0A8F11008B8F1100F09F1DE
:104B000008091ADD01351034072D25942495C9F8BC
:104B100000A0C9F80470EEDD23AA3146584602F021
:104B20004BFD00287FF4F4AEA8F11008B8F1100F87
:104B30000DF1C009259C249DE4DC4646DDF8348057
:104B400001350F9B3444072D2594249589E84800AE
:104B500040F3B88023AA09990A9802F02DFD002895
:104B60007FF4D6AE259C249D0DF1C009ACE023AAAC
:104B700009990A9802F020FD00283FF49FAEC7E68D
:104B800023AA09990A9802F017FD00287FF4C0AE05
:104B90000DF1C009C4E423AA09990A9802F00CFD9A
:104BA00000287FF4B5AE0DF1C009259C2EE623AA9E
:104BB00009990A9802F000FD00287FF4A9AE0DF1D2
:104BC000C009259CD5E523AA09990A9802F0F4FCAE
:104BD00000287FF49DAE0DF1C009259CD9E5013375
:104BE0000F9A2C44072B2594249389E824007FF7FF
:104BF0001EAE23AA09990A9802F0DEFC00287FF471
:104C000087AE259C0DF1C00913E600BF8C8900001A
:104C1000908900001D9D002D40F30E83139B129A76
:104C20009342A8BF1346002B1D460DDD249B2C4448
:104C30000133072B2594C9F80060C9F80450249368
:104C400000F3158609F10809139B002DA8BF5B1B13
:104C5000002B1D4640F3A083B94A102D249B0F92D0
:104C600040F3458522461027DDF828B0099C05E071
:104C700009F10809103D102D40F338850133103239
:104C8000072B25922493C9F800A0C9F80470EFDD22
:104C900023AA2146584602F08FFC00287FF438AE44
:104CA0000DF1C009259A249BE4E7013B013501364B
:104CB0001C44072DC9F8006024952594C9F80430D8
:104CC0003FF748AF09F10809199A013514441FABA1
:104CD000072D25942495C9F80420C9F800307FF7E2
:104CE000A6AD23AA09990A9802F066FC00287FF471
:104CF0000FAE0DF1C009259C9BE598F8003008F136
:104D000001042A2B00F02B87A3F13000092898BF5B
:104D1000002500F2AF8614F8013B05EB850500EB9A
:104D20004505A3F130000928F5D945EAE575A04607
:104D30000CE4079B43F08003079398F8003003E4EA
:104D400098F8003000297FF4FFAB01222021FFF703
:104D5000FBBB079B43F00103079398F80030FFF774
:104D6000F3BB98F8003001222B21FFF7EDBB079B26
:104D700043F02003079398F80030FFF7E5BB0E9A45
:104D8000AB461668002511938DF86F50141D002E48
:104D900000F0E585BBF1000FC0F23F855A46294679
:104DA000304602F0ADF8002800F05886AB46831B71
:104DB0000D9323EAE3730E940893CDF84CB09DF85D
:104DC0006F7072E41193AB46002A40F0ED86079AAB
:104DD00012F0200300F043810E9C0027073424F0DA
:104DE000070303F10801BB450E91D3E900458DF897
:104DF0006F70C0F2C18222F08003079354EA05036A
:104E000000F04881002D08BF0A2CC0F0488130AE68
:104E1000204629460A22002303F0F6F9303206F82C
:104E2000012D2046294600230A2203F0EDF904460D
:104E30000D4654EA0503EBD12DE41193AB46002A4D
:104E400040F0CA86079B3F489D0640F15D810E9C5D
:104E5000073424F0070303F108020E92D3E900455A
:104E6000079A12F0010700F0468254EA05033FF466
:104E70002AAD9DF8442000278DF87120079A302331
:104E8000BB458DF870308DF86F7042F00203C0F2B0
:104E90008D8522F0800343F002030793FFF7ECBBFC
:104EA00098F800306C2B00F05284079840F0100006
:104EB0000790FFF749BB1193AB46002A40F0948658
:104EC000079A12F0200300F0A0800E9C0027073400
:104ED00024F0070303F10801BB450E91D3E9004517
:104EE0008DF86F700BDB22F08003079354EA050303
:104EF00006D1BBF1000F00F0A28500240025002799
:104F000030AEE20842EA4572E90804F007030D46B4
:104F10001446303354EA050206F8013DF1D1079AF0
:104F2000D1077FF5B8AB302B3FF4B5AB3022731E01
:104F300006F8012C30AAD21A0D921E46FFF7AEBB1E
:104F400090890000708900001193AB46002A40F060
:104F50004786079B0E9C1A0704F1070440F16C83F7
:104F600024F0070303F108020E921A685B6814929A
:104F70001593159B149D23F00044284621464FF0BD
:104F8000FF32A94B03F002F9002840F0CD822846F9
:104F900021464FF0FF32A44B03F0DAF8002840F02E
:104FA000C382149815990022002303F0C7F8002843
:104FB00040F0F6849DF86F7007999C4E21F08001B7
:104FC0009B4B0791119903224FF0000B0892472940
:104FD000D8BF1E460D92CDF84CB0FFF766BB079BBD
:104FE00043F00803079398F80030FFF7ADBA119328
:104FF000AB46002A40F0EC85079B43F01003079373
:10500000079A12F020037FF460AF079911F01002A5
:1050100000F068820E98BBF1000F024604688DF81C
:105020006F3002F104024FF00005C0F2C28421F09B
:105030008001079154EA05010E923FF45AAF1F46D2
:105040005EE71193AB46002A40F0BE85079B43F014
:1050500010030793079A12F020037FF4BDAE07995F
:1050600011F0100200F026830E98BBF1000F0246EB
:1050700004688DF86F3002F104024FF00005C0F2B1
:105080008C8421F08001079154EA05010E921F469D
:105090007FF4B8AEBBF1000F00F09080002440AE6A
:1050A000303406F8414DFFF7F6BA002A40F0888503
:1050B000079B9B0640F1CA820E9A134604330E9357
:1050C0000B9B1168DD171A462B46C1E90023FFF739
:1050D00008BAA3F1300000231C4618F8013B04EB8A
:1050E000840400EB4404A3F130000928F5D90C94A2
:1050F000FFF72CBA1193AB46002A40F05D85079B61
:105100004C489D063FF5A3AE079BDC0640F1B582F7
:105110000E9A00251346043314680E93A0E61193EB
:10512000AB46002A40F04485079B43F010030793E9
:10513000079B980640F1F1800E9C073424F0070489
:10514000D4E9002304F108011D4614460E91002AFB
:1051500073F10003C0F2F280BBF1000F9DF86F7095
:10516000C0F20A81079B23F08003079354EA0503EA
:105170007FF448AE8EE71193AB46002AD8D08DF865
:105180006F10D5E7079B43F04003079398F8003072
:10519000FFF7DAB90E9911930A68002301201F4620
:1051A0008DF86F309B4613930B1D08908DF8982057
:1051B0000E930D9026AEFFF77CBA5F464FF0000BC2
:1051C000CDF834B030AEFFF769BA23AA09990A982E
:1051D00002F0F2F900287FF49BAB259CFFF763BB3C
:1051E0001193002A40F0D384119A002A3FF489AB2E
:1051F000002301211F4608918DF898208DF86F300B
:105200009B4613930D9126AEFFF753BA23AA099933
:105210000A9802F0D1F900287FF47AAB0DF1C009A9
:10522000259CFFF7A2BB00BFFFFFEF7F5089000066
:105230004C8900005C890000249BB849013301348B
:105240000122072B2594249389E8060000F3C282EB
:1052500009F108092DB9129B1BB9079BDF077FF5E0
:10526000E8AA249B16990133179A0C44072B25941E
:10527000C9F80020C9F80410249300F3FF8309F152
:1052800008096D42002D40F3DB82A54A102D0F92D4
:1052900040F34B8322461027DDF828B0099C05E037
:1052A00009F10809103D102D40F33E8301331032FF
:1052B000072B25922493C9F800A0C9F80470EFDDEC
:1052C00023AA2146584602F077F900287FF420AB44
:1052D0000DF1C009259A249BE4E7924807911193A8
:1052E00054EA05030E924FF000077FF4C5A900248D
:1052F0000025FFF7C1B9BBF1000F8DF86F70C0F248
:10530000038222F08003079354EA05037FF4B4A9D3
:10531000BBF1000F7FF4E5AA4FE7079BD90640F1E8
:10532000BA810E9A13461C680433E51722460E9381
:105330002B46002A73F10003BFF60EAF64424FF014
:105340002D0765EB4505BBF1000F8DF86F70FFF67B
:1053500059AD079B23F08003079353E50E9ABBF1E9
:10536000000F134614688DF86F7003F104034FF0BB
:10537000000580F2E2810E9354EA05037FF442AD0A
:105380008DE623AA09990A9802F016F900287FF4FD
:10539000BFAA259C0DF1C009139A1D9B32441746E4
:1053A000129A934249DB079AD50746D412990E44C4
:1053B000F51BCB1A9D42A8BF1D46002D2E460DDDC4
:1053C000249A2C440132072A2594C9F80070C9F8A0
:1053D0000450249200F3D28209F10809002EB4BFD0
:1053E0001D469D1B002D7FF724AA4D4A102D249B9E
:1053F0000F927FF7F4AB10260A9FDDF824B005E08A
:1054000009F10809103D102D7FF7E9AB0133103485
:10541000072B25942493C9F800A0C9F80460EFDD98
:1054200023AA5946384602F0C7F800287FF470AA2C
:105430000DF1C009259C249BE4E7249A16980132BB
:1054400017990444072A2594C9F80010C9F80400E4
:10545000249200F3778209F10809A7E7079BD80790
:105460003FF514AB0123072D2594C9F8006024955E
:10547000C9F804307FF726AC23AA09990A9802F0EC
:105480009BF800287FF444AA0DF1C009259C249DB7
:105490001AE423AA09990A9802F08EF800287FF4EA
:1054A00037AA0DF1C009259C249DFFF7FBBA23AA5A
:1054B00009990A9802F080F800287FF429AA0DF1D2
:1054C000C009259C249DFFF7FCBA23AA09990A98D4
:1054D00002F072F800287FF41BAA0DF1C009259C88
:1054E000FFF75BB9079911F0400700F00F810E98A4
:1054F000BBF1000F034604888DF86F2003F104030D
:105500004FF00005C0F2738121F08001079154EA49
:1055100005010E933FF4EDAC1746F1E48C890000D1
:105520009089000070890000149C22462046159C3A
:105530002346214602F02AFE002840F0C182119B3A
:10554000BBF1FF3F23F020030D9300F04982472B6E
:1055500000F05081079B43F480731093159B1F1E2E
:10556000149B0893B7BF3B46002303F100472D234C
:105570000F93119B662B00F01F82462B00F00D81CC
:105580000D9B21A8452B18BF5D461EA908BF0BF136
:105590000105049003911DA802213B460290089A40
:1055A000019500910A9800F037FC119B0646672B85
:1055B00040F03482079BDA0740F16F827419089833
:1055C00039460022002302F0AFFD002840F04D8153
:1055D000219B9C4206D930215A1C21921970219B93
:1055E0009C42F9D89B1B12930D9B472B00F03681F0
:1055F000119B652B40F32182119B662B1D9B1393FE
:1056000000F0FE81139A12998A42C0F2EC81079B46
:10561000D90700F1448222EAE2730D9267221192C7
:105620000F9A002A40F0EF800893109B934607934F
:105630009DF86F70FFF739B824F0070423681493BE
:105640006368159304F108030E9392E4079BDF0649
:105650000BD4079B5E0608D50E9A136804320E928F
:10566000BDF82C201A80FEF73CBF0E9A1368043256
:105670000E920B9A1A60FEF734BF0E9A079B002514
:1056800013F0400F134603F104030CBF1468148891
:105690000E93FFF7E5BB079B0E9A13F0400F1346DE
:1056A0003FF441AEB2F900400433E5170E932246B1
:1056B0002B464CE5079911F040073FF44FAE0E988A
:1056C000BBF1000F034604888DF86F2003F104033B
:1056D0004FF00005C0F2948021F08001079154EA58
:1056E00005010E9317467FF48DABD3E414460133C6
:1056F0000F9A2C44072B2594249389E824003FF724
:1057000040AE09F1080947E60E9AE9E50E9ABBF1A9
:10571000000F134614688DF86F7003F104034FF007
:10572000000564DB079A0E9322F08002079254EA88
:1057300005027FF4E5ABFFF7DCBB079A0E9322F07E
:105740008002079254EA05027FF45CABA2E4079B57
:1057500008F1010843F02003079398F80030FEF7A2
:10576000F3BE23AA09990A9801F026FF00287FF4C6
:10577000CFA80DF1C009259CFFF70FB940210A9869
:10578000FEF786F9099A10601061002800F0F58193
:10579000099A40235361FEF794BE21A81EA90490E4
:1057A00003911DA803210290089A3B46CDF804B04E
:1057B00000910A9800F030FB5D460646119B741973
:1057C000462B7FF4FCAE3378302B00F097811D9D83
:1057D0002C44F4E623AA09990A9801F0EDFE00286A
:1057E0007FF496A80DF1C0091D9D259C32E50E930E
:1057F000FFF785BBBBF1000F08BF4FF0010BA9E617
:105800000E931746B8E50893109B2D2707938DF844
:105810006F704FF0000BFEF749BF3046FEF70CFEED
:10582000AB460346FFF7C4BA23AA09990A9801F0C8
:10583000C3FE00287FF46CA8259C249B0DF1C009B1
:10584000129901330C44072B25942493C9F8006066
:10585000C9F804107EF7EBAFFFF7CBB91D9BDD1C39
:1058600012DB9B4510DB1393CCE62346BAE623AA52
:1058700009990A9801F0A0FE00287FF449A80DF1CB
:10588000C009259CFFF7E0B9119A023A1192013B39
:105890009DF84420002B1D93B8BF5B428DF87C20FF
:1058A000B4BF2D222B22092B8DF87D2040F30081DF
:1058B0000DF18B000446B84A82FB0321DA17C2EBD4
:1058C000A10101EB8102A3EB4202303209290B4610
:1058D00004F8012DEFDC21463033DAB201F8012D56
:1058E000884240F251810DF17E01234601E013F818
:1058F000012B984201F8012BF9D1431C1B1B0DF120
:105900007E0213441FAA9B1A129A1993012A134468
:105910000D9340F309810D9B169A134400220D93B9
:10592000139223EAE3737BE6144601330F9A2C4467
:10593000072B2594249389E824003FF775AF09F1DC
:1059400008097DE723AA09990A9801F035FE002885
:105950007EF4DEAF0DF1C0091D9B259C26E55B465C
:10596000062B28BF06230D9323EAE373B34637467D
:1059700013960E940893894EFEF797BE23AA0999B1
:105980000A9801F019FE00287EF4C2AF1D9B129AFE
:10599000259CD31A0DF1C00920E50E921F46EBE4B9
:1059A0002D231F468DF86F30FFF706BB0793FEF7D8
:1059B00063BE0E92FFF7A3BA21A81EA9049003911B
:1059C0001DA803210290089A3B46CDF804B000912F
:1059D0000A9800F021FA5D46064600EB0B04F2E659
:1059E0004FF0060BB6E5169A129B1344139A0D93CB
:1059F000002A40F39180672223EAE37311920FE6B5
:105A0000002B40F39B80BBF1000F6ED1079AD407A7
:105A10006BD41A4623EAE3730D9201E6119B472BE0
:105A20007FF4CCAD079BDB073FF5C8AE219B9B1BEA
:105A300012930D9B472B3FF411AF1D9B27E7079B4C
:105A40005F46DB0705D540AE302306F8413DFEF743
:105A500022BECDF834B030AEFEF720BE2BEAEB7399
:105A6000CDF834B0089383460E9413909DF86F7070
:105A7000FEF71BBEA0460025FEF768BD23AA0999C4
:105A80000A9801F099FD00287EF442AF0DF1C0099B
:105A90001D9D259C249BFFF7F4BB219BA2E5169A34
:105AA000139B134467220D93119223EAE373B7E526
:105AB000303330228DF87F308DF87E2020AB21E707
:105AC0000799374E21F08001364B07911199032237
:105AD0004FF0000B08924729D8BF1E460D92CDF813
:105AE0004CB09DF86F70FEF7E0BD139B169A9D18A1
:105AF00005EB0B030D9323EAE37391E50898394610
:105B00000022002302F010FB00287FF460AEC5F1F4
:105B100001051D952C4452E5139B0D9AC3F1010319
